:100000000C9463000C944C080C9425080C948B0001
:100010000C948B000C948B000C948B000C948B0034
:100020000C948B000C948B000C948B000C948B0024
:100030000C948B000C948B000C948B000C948B0014
:100040000C94CA0B0C948B000C946F030C94490312
:100050000C948B000C948B000C948B000C948B00F4
:100060000C94E0040C948B000000000800020100D6
:100070000003040700000000000000000000000072
:10008000240027002A0001020408102040800102F9
:1000900004081020010204081020000000002500C0
:1000A00028002B0000000000230026002900040483
:1000B0000404040404040202020202020303030310
:1000C0000303C20EB30E11241FBECFEFD8E0DEBF74
:1000D000CDBF11E0A0E0B1E0E4E0F7E202C005909E
:1000E0000D92AC3CB107D9F723E0ACECB1E001C014
:1000F0001D92A539B207E1F710E0C2E6D0E004C0D6
:100100002197FE010E94C210C136D107C9F70E9493
:10011000140C0C9475130C94000008950895CF925C
:10012000DF92EF92FF920F931F93CF93DF936C01B7
:100130007A018B01C0E0D0E0CE15DF0581F0D80157
:100140006D918D01D601ED91FC910190F081E02D32
:10015000C6010995892B11F02196EECF7E01C701CA
:10016000DF91CF911F910F91FF90EF90DF90CF9093
:100170000895FC01538D448D252F30E0842F90E0AD
:10018000821B930B541710F0CF9608950197089592
:10019000FC01918D828D981761F0828DDF01A80F8F
:1001A000B11D5D968C91928D9F5F9F73928F90E0B1
:1001B00008958FEF9FEF0895FC01918D828D981720
:1001C00031F0828DE80FF11D858D90E008958FEF5D
:1001D0009FEF0895FC01918D228D892F90E0805C26
:1001E0009F4F821B91098F739927089587E192E0B1
:1001F0000E94EA0021E0892B09F420E0822F089573
:10020000FC01848DDF01A80FB11DA35ABF4F2C91B3
:10021000848D90E001968F739927848FA689B78982
:100220002C93A089B1898C91837080648C93938D79
:10023000848D981306C00288F389E02D80818F7D1C
:1002400080830895EF92FF920F931F93CF93DF93D4
:10025000EC0181E0888F9B8D8C8D981305C0E88917
:10026000F989808185FD26C0F62E0B8D10E00F5F89
:100270001F4F0F731127E02E8C8DE8120CC00FB6A4
:1002800007FCFACFE889F989808185FFF5CFCE0197
:100290000E940001F1CF8B8DFE01E80FF11DE35AA2
:1002A000FF4FF0829FB7F8940B8FEA89FB8980811A
:1002B00080620AC09FB7F894EE89FF896083E8895D
:1002C000F98980818370806480839FBF81E090E0A2
:1002D000DF91CF911F910F91FF90EF900895CF93F1
:1002E000DF93EC01888D8823C9F0EA89FB8980813E
:1002F00085FD05C0A889B9898C9186FD0FC00FB610
:1003000007FCF5CF808185FFF2CFA889B9898C9150
:1003100085FFEDCFCE010E940001E7CFDF91CF91A5
:10032000089580E090E0892B29F00E94F600811169
:100330000C9400000895CF93DF93EC018B8D9C8D7E
:10034000DC01ED91FC910680F781E02D41E06E81AA
:1003500009958B8D9C8DDC01ED91FC910484F585D4
:10036000E02D09958B8D9C8DDC01ED91FC91068033
:10037000F781E02D40E06E8109958B8D9C8DDC012D
:10038000ED91FC910484F585E02DDF91CF910994E6
:10039000CF92DF92EF92FF920F931F93CF93DF9351
:1003A0008C016C0127E0C20ED11CC0E0D0E0E62E2B
:1003B000F12CD8015B968D919C915C97F60161912F
:1003C0006F01A7010C2E02C0559547950A94E2F7DC
:1003D0004170DC01ED91FC910680F781E02D0995DB
:1003E0002196C430D10529F7C801DF91CF911F9123
:1003F0000F91FF90EF90DF90CF900C949B0181E0E4
:10040000089585ED8093BC008091BC0084FDFCCFF5
:100410001092620308954091F001262F30E0240FDE
:10042000311D21323105DCF4209162032430C9F4FE
:10043000FC0180E090E0861758F43091F0012191A2
:10044000DC01A053BE4FA30FB11D2C930196F3CF37
:100450008091F001680F6093F00180E0089581E0E1
:10046000089582E008950895E09164038091630304
:10047000E81730F4F0E0EB59FC4F808190E00895EC
:100480008FEF9FEF08959091640380916303981715
:1004900050F4E92FF0E0EB59FC4F208130E09F5FF2
:1004A0009093640302C02FEF3FEFC901089580913C
:1004B000630390E020916403821B91090895CF9219
:1004C000DF92EF92FF920F931F93CF93DF937C0104
:1004D000CB018A0120911903222389F0EB016B01E2
:1004E000C40ED51ECC15DD0569F06991D701ED91DB
:1004F000FC910190F081E02DC7010995F3CF642FA5
:100500000E940B02C801DF91CF911F910F91FF90C4
:10051000EF90DF90CF900895CF93DF931F92CDB7E8
:10052000DEB76983209119032223D1F020913B0388
:10053000203240F021E030E0FC013383228380E070
:1005400090E015C080911A03E82FF0E0E55EFC4FC3
:10055000998190838F5F80931A0380933B0305C03A
:1005600061E0CE0101960E940B0281E090E00F90C5
:10057000DF91CF910895089580E090E008950E9462
:1005800070136115710579F0FB0101900020E9F706
:100590003197AF01461B570BDC01ED91FC910280B6
:1005A000F381E02D099480E090E008950F931F936C
:1005B000CF93DF93EC018A81882321F061E0888169
:1005C0000E94BA0A60E088810E94870A83E090E076
:1005D0000197F1F761E088810E94870A83E290E049
:1005E0000197F1F760E088810E94870A8A81882359
:1005F00021F060E088810E94BA0A0E94FA0A6B83A7
:100600007C838D839E8389810E945A0A892BA9F459
:100610000E94FA0A0B811C812D813E81DC01CB01F5
:10062000801B910BA20BB30B0F81188529853A858E
:10063000081719072A073B0730F70E94FA0A6B834D
:100640007C838D839E8389810E945A0A892BA9F01D
:100650000E94FA0A0B811C812D813E81DC01CB01B5
:10066000801B910BA20BB30B0F81188529853A854E
:10067000081719072A073B0730F70E94FA0A2B814F
:100680003C81CB01821B930BDF91CF911F910F9186
:1006900008951F920F920FB60F9211242F933F933C
:1006A0004F935F936F937F938F939F93AF93BF937A
:1006B000EF93FF9387E192E00E940001FF91EF9199
:1006C000BF91AF919F918F917F916F915F914F916A
:1006D0003F912F910F900FBE0F901F9018951F9272
:1006E0000F920FB60F9211242F938F939F93EF9336
:1006F000FF93E0912702F09128028081E0912D0282
:10070000F0912E0282FD12C09081809130028F5FA5
:100710008F7320913102821751F0E0913002F0E0A6
:10072000E95EFD4F958F8093300201C08081FF917B
:10073000EF919F918F912F910F900FBE0F901F906F
:100740001895CF92DF92EF92FF920F931F93CF9362
:10075000DF93EC01F62E8B8D9C8DDC01ED91FC91ED
:100760000680F781E02D6C8109956D816F3F51F016
:100770008B8D9C8DDC01ED91FC910680F781E02D45
:1007800040E009958F850F2D10E084FF25C06E0194
:10079000B7E0CB0ED11CE12CF12C8B8D9C8DF6019A
:1007A00061916F01A8010E2C02C0559547950A94DE
:1007B000E2F74170DC01ED91FC910680F781E02DBC
:1007C0000995BFEFEB1AFB0AE8E0EE16F10429F7F2
:1007D000CE010E949B010DC0B80184E0759567951C
:1007E0008A95E1F7CE010E94C8016F2DCE010E94CB
:1007F000C8016A8970E08EE093E0DF91CF911F918C
:100800000F91FF90EF90DF90CF900C940F0641E096
:100810000E94A10381E090E00895EF92FF920F9370
:100820001F93CF93DF938BEC92E00E94D60228E3D4
:10083000E22EF12CB7010E9480108B01C62F80ECB4
:1008400092E00E94D602B7010E948010262FC801B4
:1008500099278339910518F01092CF0105C00997A7
:1008600028F486E48093CF0111E008C00C3020F01A
:10087000C4EFC00F10E002C010E0C0E0CB01992728
:100880008C39910518F01092CE018AC00D9720F492
:1008900086E48093CE0184C0203148F020EF260FFB
:1008A0001123B9F0C0E0213830F021E804C0112351
:1008B00079F0C0E020E081E8821B26E4829FC0013D
:1008C000112461E870E00E949410D62F00E012C05D
:1008D00020E0CC3738F700E08CE78C1B36E4839FB0
:1008E000C00111246CE770E00E949410C62F002311
:1008F000D1F2D0E08091CF01C81305C08091CE0124
:10090000D81709F456C00E94FF0760E080E00E94FB
:10091000AC0765E086ED92E00E9407041123A1F088
:100920008091CD0191E0811190E09093CD018111F2
:100930000FC060E088E00E94AC0768EC71E086EDD3
:1009400092E00E94C10204C06C2F80E00E94BE07AA
:1009500061E080E00E94AC0766E086ED92E00E94D4
:1009600007040023A1F08091CC0191E0811190E077
:100970009093CC0181110FC061E088E00E94AC0728
:1009800068EC71E086ED92E00E94C10204C06D2F18
:1009900081E00E94BE07C093CF01D093CE0109C071
:1009A000112319F001E0C0E0A4CFCC37D8F701E063
:1009B00093CFDF91CF911F910F91FF90EF9008950A
:1009C0001F920F920FB60F9211242F933F934F93C4
:1009D0005F936F937F938F939F93AF93BF93EF93A7
:1009E000FF938091B900887F803609F49CC068F538
:1009F000883209F45BC090F4803109F454C038F4B3
:100A0000882309F4F6C0883009F44DC0F6C0883157
:100A100009F44CC0803209F45DC0EFC0803409F4A1
:100A200068C048F4803309F455C0883309F0E5C044
:100A300080936003D8C0803509F44FC0883509F42D
:100A40005DC0883409F0D9C0D6C0883909F4C7C060
:100A5000A8F4883709F467C038F4883609F463C00D
:100A6000803709F460C0C9C0883809F4B8C080393B
:100A700009F45FC0803809F0C0C05BC0803B09F456
:100A800086C038F4803A09F466C0883A09F47FC019
:100A9000B4C0803C09F4A7C0883C09F4A4C0883BDA
:100AA00009F48AC0AAC080915D0310C090915F03D1
:100AB00080915E03981770F5E0915F0381E08E0FDF
:100AC00080935F03F0E0E45CFC4F80818093BB0087
:100AD00085EC86C0809360038EC0E0915F0381E067
:100AE0008E0F80935F038091BB00F0E0E45CFC4FCD
:100AF000808390915F0380915E036EC0E0915F03FD
:100B000081E08E0F80935F038091BB00F0E0E45C96
:100B1000FC4F80838091610381116DC081E08093DF
:100B20005C0384EA61C083E0809362031092120246
:100B3000CFCF80911202803208F051C0E0911202B2
:100B400081E08E0F809312028091BB00F0E0EE50A6
:100B5000FE4F8083BDCF85EC8093BC001092620372
:100B600080911202803230F4E0911202F0E0EE50F7
:100B7000FE4F10826091120270E0E0911302F0913A
:100B8000140282EF91E009951092120236C084E0BF
:100B9000809362031092F1011092F001E09115022E
:100BA000F091160209958091F001811105C081E054
:100BB0008093F0011092D001E091F10181E08E0F5D
:100BC0008093F101F0E0E053FE4F80818093BB0001
:100BD0009091F1018091F001981708F479CF85E8A0
:100BE0008093BC000AC085EC8093BC001092620325
:100BF00004C0109260030E940102FF91EF91BF9127
:100C0000AF919F918F917F916F915F914F913F91A4
:100C10002F910F900FBE0F901F90189508954F922F
:100C20005F926F927F928F929F92AF92BF92CF927C
:100C3000DF92EF92FF920F931F93CF93DF9300D039
:100C400000D000D0CDB7DEB76C017A8369830E94F3
:100C5000FA0A2B013C0149815A819A0140E050E097
:100C600029833A834B835C83D6011A968C911A9719
:100C7000882359F01A961C921A9719968C911997F5
:100C80001796ED91FC9118970995F6010480F5816E
:100C9000E02DFE83ED832D813E812115310529F163
:100CA000D9010D911C9117FF20C013FD1EC046C035
:100CB0008115904109F047C10E94590B4B015C011D
:100CC0009801A8EEB3E00E94A810ED81FE81028198
:100CD000138124813581801A910AA20AB30A8616EB
:100CE0009706A806B90608F048C00E94FA0ADC0177
:100CF000CB0184199509A609B70929813A814B814D
:100D00005C8182179307A407B50708F4ADCF269638
:100D10000FB6F894DEBF0FBECDBFDF91CF911F910C
:100D20000F91FF90EF90DF90CF90BF90AF909F908A
:100D30008F907F906F905F904F900895C8018827A3
:100D400090731770009709F0B3CF0E94FA0AAD8133
:100D5000BE8112968D909D90AD90BC901597DC0150
:100D6000CB0188199909AA09BB0920E030E0801756
:100D70009107A207B30708F4B8CFF601A481B581A3
:100D80002D813E812A173B0761F4D90118968D9178
:100D90009C9119979583848319961C921E9218979B
:100DA0001AC01896ED91FC9119973097A1F02D81FA
:100DB0003E812E173F0751F4F901808591851996E0
:100DC0009C938E9318971186108605C0DF010084CE
:100DD000F185E02DEACFAD81BE8116968D919C9173
:100DE0001797009709F449C02D913C9111971A96D5
:100DF0004C911A9736FF28C038602D933C934423BA
:100E000041F0DC01ED91FC910190F081E02D09951C
:100E100002C0FC010995AD81BE818D919C9188270E
:100E20009073892B19F40E94FA0A02C00E94590B90
:100E3000ED81FE81628373838483958380819181B8
:100E4000977F9183808319C0AD81BE8111961C92DA
:100E50001E9217961C921E92169719961C921E921D
:100E60001897442341F0DC01ED91FC910190F08151
:100E7000E02D099502C0FC010995AD81BE818D91DF
:100E80009C91119796FF56C0F60184819581009739
:100E900039F4B583A48319961C921E9218974AC000
:100EA0000E94650B4B015C018D819E810E94650B48
:100EB000D60114960D911C911597681579058A0530
:100EC0009B0548F4ED81FE81118700871596FC9300
:100ED000EE9314972FC0D8011896ED90FC901997B7
:100EE000E114F104F1F0C7010E94650B4B015C01B4
:100EF0008D819E810E94650B681579058A059B0589
:100F000058F42D813E81F80131872087D901199647
:100F1000FC92EE9218970EC08701F701E084F184ED
:100F2000DFCFED81FE81D8011996FC93EE931897DF
:100F300011861086AD81BE8118960D90BC91A02DB2
:100F4000BE83AD83A8CE0E94590B01CF40E0682F2D
:100F500086ED92E00C94A103643008F063E0909178
:100F6000EC02691710F06FEF690FE62FF0E0EA521C
:100F7000FD4F9789890F80680C94A607FF920F9305
:100F80001F93CF93DF93C82F162F70E080E090E07F
:100F90000E94801120E030E040EA50E40E94DF101F
:100FA0000E94C8100E945111062F82E00E94A607DD
:100FB00060ED77E08EE093E00E940F066C2F82E0F8
:100FC0000E94AC07DFEFD10FC1E084E0F82EF10EF4
:100FD0000C1778F08F2D8D1B811710F464E001C081
:100FE0006D2F86ED92E00E940704CF5FD550CF3081
:100FF00079F7DF91CF911F910F91FF90089581E0D4
:101000000E94A60760ED77E08EE093E00C940F0657
:101010000F931F93CF93DF938B01877028E0829FFC
:10102000C001112480640E94A607E801085F1F4FD9
:10103000699186ED92E00E940704C017D107C1F7BD
:10104000DF91CF911F910F9108951F920F920FB6CC
:101050000F9211242F933F934F935F936F937F933E
:101060008F939F93AF93BF93EF93FF93E0913A01D8
:10107000F0913B010995FF91EF91BF91AF919F9145
:101080008F917F916F915F914F913F912F910F9031
:101090000FBE0F901F9018951F920F920FB60F92D0
:1010A00011242F933F934F935F936F937F938F936D
:1010B0009F93AF93BF93EF93FF93E0913801F0912B
:1010C00039010995FF91EF91BF91AF919F918F9158
:1010D0007F916F915F914F913F912F910F900FBE34
:1010E0000F901F901895FC01468321E027830895F7
:1010F000FC0185810895FC01858190E002C09595F1
:1011000087956A95E2F781700895FC01362F268154
:10111000442371F081E090E0A0E0B0E004C0880FCB
:10112000991FAA1FBB1F6A95D2F7822B86830EC018
:1011300041E050E060E070E004C0440F551F661FBE
:10114000771F3A95D2F740954223468381E0878303
:101150000895CF93DF93EC014D7FE881F981411130
:1011600007C081E088870680F781E02D41E004C058
:101170000680F781E02D40E0CE01099581E08F8364
:10118000DF91CF910895E62FF0E0E255FF4FE49113
:10119000F0E0EE0FFF1FEC55FF4FA591B4918C913D
:1011A0000895E62FF0E0E255FF4FE491F0E0EE0FF6
:1011B000FF1FE656FF4FA591B4914C9308956230FE
:1011C00021F0633009F581E001C080E0E82FF0E014
:1011D000EE0FFF1FE85CFE4F51834083813041F0EA
:1011E000809169008C7F282B20936900E89A0895EC
:1011F00080916900837F94E0299F90011124282B1E
:1012000020936900E99A08950895833081F028F4C5
:10121000813099F08230A1F008958730A9F08830AC
:10122000B9F08430D1F4809180008F7D03C080912B
:1012300080008F7780938000089584B58F7702C0F7
:1012400084B58F7D84BD08958091B0008F7703C0F1
:101250008091B0008F7D8093B00008951F93CF934D
:10126000DF93EC018F81882309F475C01F828C8184
:1012700091E0909319038093900310921A031092B7
:101280003B038A819B81DC01ED91FC910190F0810F
:10129000E02D6E81099530913B03313208F04BC04F
:1012A000809162038111FCCF9091900322E0209302
:1012B000620321E0209361032FEF209360031092DB
:1012C0005F0330935E03ABE1B3E0ECE3F3E020E0D7
:1012D000321721F04D9141932F5FFACF10925D03A9
:1012E00020915D03990F922B90935D0390915C0385
:1012F000913061F410925C0390915D039093BB0078
:101300009091BC0093FDF8CF95EC01C095EE9093C1
:10131000BC00909162039230E1F3909160039F3F93
:1013200079F080916003803241F0809160038033D6
:1013300031F084E005C081E003C082E001C083E0B9
:1013400010921A0310923B031092190311E08823A4
:1013500019F010E001C011E08885882309F45CC011
:101360008C81909162039111FCCF91E09093620384
:10137000909361032FEF2093600310925F0310920C
:101380005E0390935D0390915D03880F892B80939A
:101390005D0380915C03813061F410925C03809165
:1013A0005D038093BB008091BC0083FDF8CF85EC8A
:1013B00001C085EE8093BC00809162038130E1F32F
:1013C00080915F03811103C090915F0301C091E0A0
:1013D000ACE3B3E0E5E6F3E080E0891721F02D917E
:1013E00021938F5FFACF10926403809363038A8105
:1013F0009B81DC01ED91FC910084F185E02D099544
:10140000892B51F08A819B81DC01ED91FC91028452
:10141000F385E02D09958D83812FDF91CF911F9169
:1014200008950C94E7120C94E712089580918E03AE
:1014300090918F03892B69F482E090E00E944F1213
:1014400020E831E0FC013183208390938F03809367
:101450008E0380918E0390918F0308950F931F93B5
:10146000CF93DF93DC0119962C912F3FE9F08A018D
:10147000EC010E94160ADC01ED91FC910480F581DB
:10148000E02D42E0698509950E94160ADC01ED9184
:10149000FC910284F385E02D22E0A8016985DF91AB
:1014A000CF911F910F910994DF91CF911F910F91CF
:1014B00008950895CF93DF93282F30E0F901E8597C
:1014C000FF4F8491F901EA57FF4FD491F901E2559A
:1014D000FF4FC491CC2391F081110E940509EC2F9C
:1014E000F0E0EE0FFF1FEC55FF4FA591B491EC918A
:1014F000ED2381E090E021F480E002C080E090E004
:10150000DF91CF910895862F0E945A0A08951F9364
:10151000CF93DF93282F30E0F901E859FF4F8491F2
:10152000F901EA57FF4FD491F901E255FF4FC491F9
:10153000CC23C1F0162F81110E940509EC2FF0E099
:10154000EE0FFF1FE656FF4FA591B4919FB7F89499
:10155000111104C08C91D095D82302C0EC91DE2BE0
:10156000DC939FBFDF91CF911F910895862F642F49
:101570000C94870ACF93DF9390E0FC01EA57FF4F6A
:101580002491FC01E255FF4F8491882361F190E0A2
:10159000880F991FFC01E458FF4FC591D491FC01BD
:1015A000E656FF4FA591B491611109C09FB7F89419
:1015B0008881209582238883EC912E230BC0623092
:1015C00061F49FB7F8948881322F30958323888304
:1015D000EC912E2B2C939FBF06C08FB7F894E88117
:1015E0002E2B28838FBFDF91CF910895862F642FF4
:1015F0000C94BA0A3FB7F89480918A0390918B03B8
:10160000A0918C03B0918D0326B5A89B05C02F3FF8
:1016100019F00196A11DB11D3FBFBA2FA92F982F18
:101620008827820F911DA11DB11DBC01CD0142E093
:10163000660F771F881F991F4A95D1F708958F92DB
:101640009F92AF92BF92CF92DF92EF92FF926B0187
:101650007C010E94FA0A4B015C01C114D104E1042F
:10166000F104F1F00E94FA0ADC01CB018819990912
:10167000AA09BB09883E9340A105B10570F321E09A
:10168000C21AD108E108F10888EE880E83E0981E9E
:10169000A11CB11CC114D104E104F10419F7DDCF80
:1016A000FF90EF90DF90CF90BF90AF909F908F9082
:1016B00008952FB7F8946091860370918703809105
:1016C0008803909189032FBF0895CF92DF92EF9204
:1016D000FF920F931F93CF93DF938C01FC016081E6
:1016E0007181CB0188279073EB01D770009701F5CA
:1016F0000E94FA0AF80102811381248135816B016D
:101700007C01C01AD10AE20AF30ACE01A0E0B0E0DF
:101710008C159D05AE05BF0524F460E070E0CB019B
:1017200030C0BC01CD016C197D098E099F0929C00B
:101730006E01E12CF12C8115904139F49E01A8EE47
:10174000B3E00E94A8106B017C010E94590BF801C4
:101750000281138124813581DC01CB01801B910B37
:10176000A20BB30BC816D906EA06FB06B0F2A70116
:101770009601281B390B4A0B5B0BA8EEB3E00E94C5
:10178000B710DF91CF911F910F91FF90EF90DF90F5
:10179000CF9008951F920F920FB60F9211242F939E
:1017A0003F938F939F93AF93BF93809186039091C4
:1017B0008703A0918803B09189033091850323E0CA
:1017C000230F2D3720F40196A11DB11D05C026E879
:1017D000230F0296A11DB11D2093850380938603DC
:1017E00090938703A0938803B093890380918A0321
:1017F00090918B03A0918C03B0918D030196A11D54
:10180000B11D80938A0390938B03A0938C03B093B4
:101810008D03BF91AF919F918F913F912F910F9029
:101820000FBE0F901F901895789484B5826084BD88
:1018300084B5816084BD85B5826085BD85B58160D4
:1018400085BD80916E00816080936E001092810052
:10185000809181008260809381008091810081600D
:1018600080938100809180008160809380008091CE
:10187000B10084608093B1008091B000816080935A
:10188000B00080917A00846080937A0080917A0021
:10189000826080937A0080917A00816080937A00E0
:1018A00080917A00806880937A001092C100109233
:1018B00064031092630310921A0310923B03109278
:1018C000620381E08093610310925C0361E082E136
:1018D0000E94870A61E083E10E94870A8091B90033
:1018E0008E7F8093B9008091B9008D7F8093B9007D
:1018F00088E48093B80085E48093BC008DE890E094
:1019000090931602809315028EE890E09093140253
:1019100080931302E0912702F091280282E08083F5
:10192000E0912302F09124021082E0912502F091CF
:10193000260280E1808310922F02E0912B02F09129
:101940002C0286E08083E0912902F0912A028081B6
:1019500080618083E0912902F0912A028081886071
:101960008083E0912902F0912A028081806880833F
:10197000E0912902F0912A0280818F7D808364EAC0
:1019800071E087E192E00E94C10269EB71E087E1BA
:1019900092E00E94C10264E670E080E090E00E9464
:1019A0001F0B8091F1029091F202892B31F40E9479
:1019B000160A9093F2028093F1028091E50288600A
:1019C0008093E50282E08093EC021092ED0280E4C5
:1019D0008093EE0280E18093EF0280E58093F00235
:1019E0008091F1029091F202DC01ED91FC91048072
:1019F000F581E02D41E06091DA0209956091DB020A
:101A00006F3F61F08091F1029091F202DC01ED9163
:101A1000FC910480F581E02D41E009958091F1026F
:101A20009091F202DC01ED91FC910480F581E02DB2
:101A300041E06091DC020995C6EDD2E09E01265D91
:101A400032408091E50284FD03C084E090E002C052
:101A500088E090E021962817390774F48091F1020C
:101A60009091F202DC01ED91FC910480F581E02D72
:101A700041E06E810995E2CF60E573EC8EE093E082
:101A80000E940F068091F1029091F202DC01ED912B
:101A9000FC910680F781E02D40E06091DA02099523
:101AA0008091F1029091F202DC01ED91FC910680AF
:101AB000F781E02D40E06091DC0209956091DB0246
:101AC0006F3F61F08091F1029091F202DC01ED91A3
:101AD000FC910680F781E02D40E009958091F102AC
:101AE0009091F202DC01ED91FC910484F585E02DEA
:101AF00009958091E50284FD27C063E086ED92E0C0
:101B00000E94C80164E971E18EE093E00E940F0633
:101B100063E086ED92E00E94C80164E971E18EE025
:101B200093E00E940F0663E086ED92E00E94C801F8
:101B300066E970E08EE093E00E940F0662E086EDB9
:101B400092E00E94C80119C080620E94A60764E961
:101B500071E18EE093E00E940F068091E5028062C1
:101B60000E94A60766E970E08EE093E00E940F06EF
:101B70008091E50280620E94A6078091E502806262
:101B80000E94A60784E08093E6028CE00E94A607EC
:101B90000E94FF0782E08093E70286E00E94A6078A
:101BA00000E111E0C0E0B8018C2F0E940808CF5F6F
:101BB000085F1F4FC530B9F768E071E085E00E940B
:101BC000080860E071E086E00E94080864E670E0C2
:101BD00080E090E00E941F0B0E94FF0760E082E01F
:101BE0000E94AC076CEB71E086ED92E00E94C102AE
:101BF00061E089E00E94AC0762EC71E086ED92E062
:101C00000E94C10268EE73E080E090E00E941F0B2A
:101C10008091040390910503892B21F18091FC02AE
:101C20009091FD02019719F40E94590B02C00E9485
:101C3000FA0A609306037093070380930803909356
:101C4000090381E08093F3021092FE021092FF02DA
:101C5000109200031092010381E090E0909303033F
:101C6000809302038091F302882309F479C0809164
:101C7000FC029091FD02019709F50E94590B009119
:101C80000603109107032091080330910903DC013A
:101C9000CB01801B910BA20BB30B0091F4021091AE
:101CA000F5022091F6023091F70280179107A20702
:101CB000B30708F455C00E94590B1FC00E94FA0ACE
:101CC0000091060310910703209108033091090346
:101CD000DC01CB01801B910BA20BB30B0091F40232
:101CE0001091F5022091F6023091F70280179107CA
:101CF000A207B307A8F10E94FA0A60930603709343
:101D0000070380930803909309038091FE0290914A
:101D1000FF02A0910003B09101034091F80250919D
:101D2000F9026091FA027091FB02481B590B6A0B91
:101D30007B0B413051056105710511F41092F302DE
:101D40000196A11DB11D8093FE029093FF02A09306
:101D50000003B0930103E0910403F091050309959A
:101D60000E9491017FCF82EA91E090930F038093CC
:101D70000E038091100390911103009711F00C94C1
:101D8000E7120895CF92DF92EF92FF92CF9382EA0B
:101D900091E090930F0380930E0386E080931403E9
:101DA000109218031092130310921203109216034C
:101DB0001092150382E490E00E944F12FC019C01F6
:101DC0002E5B3F4F11861086118210821782168279
:101DD0003B96E217F307B1F790931103809310033A
:101DE00010921A021092190288EE93E0A0E0B0E07F
:101DF00080931B0290931C02A0931D02B0931E02BD
:101E000026E431E0309318022093170225EC30E0ED
:101E1000309324022093230224EC30E030932602F6
:101E20002093250220EC30E03093280220932702F3
:101E300021EC30E030932A022093290222EC30E09A
:101E400030932C0220932B0226EC30E030932E02AC
:101E500020932D0210923002109231021092320221
:101E6000109233021092B7021092B6028093B80219
:101E70009093B902A093BA02B093BB0288E591E0B7
:101E80009093B5028093B4021092D9021092D802B6
:101E900086E991E09093D7028093D6028AE090E0A1
:101EA0000E944F12FC018AE691E09183808384EBCB
:101EB00092E09383828387E28483168215828FEF78
:101EC000818791E0978310861092DA029093DB026B
:101ED00092E09093DC028093EB021092EA0210925F
:101EE000E902309719F40E94160A01C0CF019093BD
:101EF000F2028093F10228E22093E80224E020938A
:101F0000DD0225E02093DE0226E02093DF0227E0B9
:101F10002093E0021092E1021092E2021092E3029A
:101F20001092E4021092E50223E02093EB0210925B
:101F3000EA021092E902DC01ED91FC910480F58146
:101F4000E02D41E063E00995C091EB02CF3F09F439
:101F500069C02091E9023091EA022230310509F08E
:101F600050C061E08C2F0E94BA0AEC2FF0E0E859D3
:101F7000FF4FE491E33011F150F4E130D1F0E23061
:101F8000D9F584B5806284BD81E088BD4BC0E7305F
:101F900009F1E83041F1E43079F580918000806208
:101FA0008093800081E090E090938B0080938A0082
:101FB00039C084B5806884BDE7BD34C0809180009D
:101FC00080688093800081E090E090938900809306
:101FD000880028C08091B00080688093B00081E0C4
:101FE0008093B3001FC08091B00080628093B000E6
:101FF00081E08093B40016C060E08C2F0E94870AB5
:1020000011C08091F1029091F20241E0213031053E
:1020100009F440E0DC01ED91FC910680F781E02DB0
:102020006C2F09951092FD021092FC0280E69EEA48
:10203000AAE0B0E08093F4029093F502A093F60238
:10204000B093F7021092F8021092F9021092FA027D
:102050001092FB028DE094E09093050380930403BB
:102060001092F302109206031092070310920803D5
:10207000109209031092FE021092FF0210920003C8
:10208000109201031092CD0282E08093CB0284E093
:102090008093CC0261E082E00E94BA0A60E0809105
:1020A000CC020E94BA0A80E2C82E8EE4D82EE12C1F
:1020B000F12CC092D202D092D302E092D402F092DC
:1020C000D5021092C20287E08093C00288E080931C
:1020D000C10261E087E00E94BA0A60E08091C1021B
:1020E0000E94BA0AC092C702D092C802E092C90206
:1020F000F092CA02CF91FF90EF90DF90CF900895B9
:10210000AA1BBB1B51E107C0AA1FBB1FA617B7071D
:1021100010F0A61BB70B881F991F5A95A9F7809539
:102120009095BC01CD01089597FB072E16F40094FD
:1021300007D077FD09D00E94801007FC05D03EF43F
:10214000909581959F4F0895709561957F4F089563
:10215000A29FB001B39FC001A39F700D811D1124E8
:10216000911DB29F700D811D1124911D08950E9433
:10217000A810A59F900DB49F900DA49F800D911D58
:1021800011240895EE0FFF1F0590F491E02D09949E
:102190000E94301290F09F3748F4911116F40C947D
:1021A000491260E070E080E89FE3089526F01B1676
:1021B000611D711D811D0C94C3110C94DE110E94D0
:1021C000F3100C94FD110E94F61158F00E94EF11CB
:1021D00040F029F45F3F29F00C94BD1151110C948B
:1021E00049120C94EC110E940E1268F39923B1F37A
:1021F000552391F3951B550BBB27AA27621773072D
:10220000840738F09F5F5F4F220F331F441FAA1FC0
:10221000A9F335D00E2E3AF0E0E832D0915050407C
:10222000E695001CCAF72BD0FE2F29D0660F771F2A
:10223000881FBB1F261737074807AB07B0E809F010
:10224000BB0B802DBF01FF2793585F4F3AF09E3F95
:10225000510578F00C94BD110C9449125F3FE4F3E2
:10226000983ED4F3869577956795B795F7959F5FD8
:10227000C9F7880F911D9695879597F90895E1E024
:10228000660F771F881FBB1F621773078407BA0783
:1022900020F0621B730B840BBA0BEE1F88F7E095DE
:1022A00008950E94161288F09F5798F0B92F992729
:1022B000B751B0F0E1F0660F771F881F991F1AF031
:1022C000BA95C9F714C0B13091F00E944812B1E03C
:1022D00008950C944812672F782F8827B85F39F03B
:1022E000B93FCCF3869577956795B395D9F73EF4CA
:1022F00090958095709561957F4F8F4F9F4F089572
:10230000E89409C097FB3EF490958095709561958F
:102310007F4F8F4F9F4F9923A9F0F92F96E9BB2745
:102320009395F695879577956795B795F111F8CFC1
:10233000FAF4BB0F11F460FF1BC06F5F7F4F8F4F2C
:102340009F4F16C0882311F096E911C0772321F022
:102350009EE8872F762F05C0662371F096E8862FBA
:1023600070E060E02AF09A95660F771F881FDAF711
:10237000880F9695879597F9089597F99F6780E854
:1023800070E060E00895882371F4772321F098507D
:10239000872B762F07C0662311F499270DC0905123
:1023A000862B70E060E02AF09A95660F771F881FF1
:1023B000DAF7880F9695879597F908959F3F31F042
:1023C000915020F4879577956795B795880F911D63
:1023D0009695879597F908959FEF80EC08950024CE
:1023E0000A941616170618060906089500240A947A
:1023F00012161306140605060895092E0394000C00
:1024000011F4882352F0BB0F40F4BF2B11F460FF8E
:1024100004C06F5F7F4F8F4F9F4F089557FD9058B7
:10242000440F551F59F05F3F71F04795880F97FB98
:10243000991F61F09F3F79F0879508951216130652
:102440001406551FF2CF4695F1DF08C01616170681
:102450001806991FF1CF86957105610508940895B6
:102460000E941612A0F0BEE7B91788F4BB279F3868
:1024700060F41616B11D672F782F8827985FF7CF65
:10248000869577956795B11D93959639C8F308950C
:10249000E894BB2766277727CB0197F908950F9318
:1024A0001F93CF93DF938230910510F482E090E088
:1024B000E0919303F091940320E030E0A0E0B0E0DD
:1024C000309719F1408151810281138148175907D2
:1024D000C8F08417950769F4109731F012960C93A1
:1024E000129713961C9327C00093930310939403A1
:1024F00022C02115310519F04217530718F49A012B
:10250000BD01EF01DF01F801DBCF21153105F9F045
:10251000281B390B2430310580F48A819B81611599
:10252000710521F0FB019383828304C0909394038F
:1025300080939303FE01329644C0FE01E20FF31F25
:102540008193919322503109398328833AC0209195
:10255000910330919203232B41F420913E0130915D
:102560003F01309392032093910320913C013091DD
:102570003D012115310541F42DB73EB74091400191
:1025800050914101241B350BE0919103F09192038E
:10259000E217F307A0F42E1B3F0B2817390778F03A
:1025A000AC014E5F5F4F2417350748F04E0F5F1F99
:1025B00050939203409391038193919302C0E0E082
:1025C000F0E0CF01DF91CF911F910F910895CF934C
:1025D000DF93009709F481C0FC01329713821282C5
:1025E000A0919303B0919403109781F420813181DD
:1025F000820F931F2091910330919203281739077E
:1026000051F5F0939203E093910367C0ED0120E050
:1026100030E0CE17DF0740F44A815B819E0141150F
:102620005105F1F0EA01F5CFD383C2834081518196
:10263000840F951FC817D90759F488819981840F91
:10264000951F0296918380838A819B8193838283E5
:102650002115310529F4F0939403E09393033DC0D1
:10266000E901FB83EA8349915991C40FD51FEC1707
:10267000FD0761F480819181840F951F0296E90125
:1026800099838883828193819B838A83E0E0F0E051
:1026900012968D919C911397009719F0FD01DC0122
:1026A000F7CF8D919C9111979D012E5F3F4F820F27
:1026B000931F20919103309192032817390769F4F1
:1026C000309729F4109294031092930302C013825E
:1026D0001282B0939203A0939103DF91CF9108955A
:1026E00081E090E0F8940C94751310E0C2E6D0E01D
:1026F00004C0FE010E94C2102196C336D107C9F75B
:04270000F894FFCF7B
:10270400000E1F1F0208020000111F1F1F1F0000E0
:102714000010100010100000001818001818000015
:10272400001C1C001C1C0000001E1E001E1E0000BD
:10273400001F1F001F1F00000E060E060000950359
:1027440020000000000022018F00B9006F01EA00A0
:10275400C800DC00000000008C025F02BC023302EF
:1027640057024302340200000000150A110AA908A6
:1027740085087B082E0A2E097308780800000000DB
:10278400590A130AF60AB60A830ADF08FF01D108B8
:10279400C3080000000007048F00BC02BB02000055
:1027A40000000F064D65617375726557617465723B
:1027B4002072756E6E696E67000D0A0057415445AC
:0C27C40052004C4556454C002D2D0000E5
:00000001FF
