:100000000C9463000C94C6090C949F090C948B000B
:100010000C948B000C948B000C948B000C948B0034
:100020000C948B000C948B000C948B000C948B0024
:100030000C948B000C948B000C948B000C948B0014
:100040000C94ED090C948B000C948B000C948B0099
:100050000C948B000C948B000C948B000C948B00F4
:100060000C94370A0C948B00000000002400270039
:100070002A00010204081020408001020408102018
:1000800001020408102000000000250028002B00B9
:1000900000000000230026002900040404040404D6
:1000A000040402020202020203030303030300002A
:1000B0000008000201000003040700000000000027
:1000C0000000560B280F11241FBECFEFD8E0DEBF73
:1000D000CDBF11E0A0E0B1E0E0E7F4E202C005909E
:1000E0000D92AA3AB107D9F722E0AAEAB1E001C01D
:1000F0001D92A13CB207E1F710E0C2E6D0E004C0D7
:100100002197FE010E94790FC136D107C9F70E94DD
:10011000B80C0C942B120C9400000895FC0146833B
:1001200021E027830895FC0185810895FC018581E4
:1001300090E002C0959587956A95E2F781700895E1
:100140000F931F93FC01868101E010E020E030E076
:1001500004C0000F111F221F331F6A95D2F74423DA
:1001600039F0082B068381E087831F910F91089552
:1001700000950823F7CFCF93DF93EC01E881F98155
:100180000680F781E02D4D7F51F481E0888741E0C2
:10019000CE01099581E08F83DF91CF91089540E0F2
:1001A000F7CF0895E62FF0E0E656FF4FE491F0E038
:1001B000EE0FFF1FE057FF4FA591B4918C9108956A
:1001C000E62FF0E0E656FF4FE491F0E0EE0FFF1F60
:1001D000EA57FF4FA591B4914C9308956230A9F46A
:1001E000622F70E080E0E82FF0E0EE0FFF1FE05C90
:1001F000FE4F51834083813071F0809169008C7F84
:10020000282B20936900E89A0895633079F4622FCF
:1002100070E081E0E8CF80916900837F660F771FEF
:10022000660F771F862B80936900E99A08950895D9
:10023000833081F028F4813099F08230A9F008955C
:100240008730A9F08830C9F08430B1F48091800003
:100250008F7D03C0809180008F7780938000089508
:1002600084B58F7784BD089584B58F7DFBCF809151
:10027000B0008F778093B00008958091B0008F7D9B
:10028000F9CFCF93DF93282F30E0F901E255FF4FEC
:100290008491F901EE58FF4FD491F901E656FF4FD2
:1002A000C491CC23A1F081110E941801EC2FF0E041
:1002B000EE0FFF1FE057FF4FA591B491EC91ED2396
:1002C00081E090E009F480E0DF91CF91089580E033
:1002D00090E0FACF862F0E94410108951F93CF939B
:1002E000DF93282F30E0F901E255FF4F8491F901A7
:1002F000EE58FF4FD491F901E656FF4FC491CC233D
:10030000A9F0162F81110E941801EC2FF0E0EE0FDA
:10031000FF1FEA57FF4FA591B4918FB7F894EC9166
:10032000111108C0D095DE23DC938FBFDF91CF91F0
:100330001F910895DE2BF8CF862F642F0C946E0149
:10034000CF93DF9390E0FC01EE58FF4F2491865647
:100350009F4FFC0184918823C9F090E0880F991F7A
:10036000FC01E859FF4FA591B491FC01EA57FF4FFA
:10037000C591D49161110DC09FB7F8948C912095CF
:1003800082238C938881282328839FBFDF91CF917C
:100390000895623051F49FB7F8943C91822F809574
:1003A00083238C93E8812E2BEFCF8FB7F894EC91B9
:1003B0002E2B2C938FBFEACF862F642F0C94A00195
:1003C0003FB7F8948091F7019091F801A091F9015D
:1003D000B091FA0126B5A89B05C02F3F19F00196F0
:1003E000A11DB11D3FBFBA2FA92F982F8827BC018F
:1003F000CD01620F711D811D911D42E0660F771FB7
:10040000881F991F4A95D1F70895CF92DF92EF92F6
:10041000FF920F931F93CF93DF93EC0128813981D3
:10042000A9014427507337706901F12CE12C411563
:10043000510531F50E94E0010A811B812C813D812B
:10044000DC01CB01801B910BA20BB30BC816D906A4
:10045000EA06FB0664F460E070E0CB01DF91CF9127
:100460001F910F91FF90EF90DF90CF900895A7011B
:100470009601281B390B4A0B5B0BCA01B901EECF61
:10048000C701B9014115504121F4A8EEB3E00E9423
:100490005F0F2FB7F894C0906F02D0907002E09079
:1004A0007102F09072022FBF0A811B812C813D8165
:1004B000C01AD10AE20AF30A6C157D058E059F0564
:1004C00050F29B01AC012C193D094E095F09A8EEC1
:1004D000B3E00E946E0FC2CF4F925F926F927F92F5
:1004E0008F929F92AF92BF92CF92DF92EF92FF9244
:1004F0000F931F93CF93DF9300D000D000D0CDB7E0
:10050000DEB76C017A8369830E94E0012B013C0114
:1005100049815A819A0150E040E029833A834B8314
:100520005C83D6011A968C911A97882351F01A96FB
:100530001C921A9719968C9119971796ED91FC9128
:100540000995F6010480F581E02DFE83ED832D8170
:100550003E812115310509F4A6C0D9010D911C91E8
:1005600017FFA1C013FD9FC0C801882790731770A3
:10057000009709F484C08115904109F0BBC08FB782
:10058000F89480906F0290907002A0907102B090E9
:1005900072028FBF9801A8EEB3E00E945F0FAD8199
:1005A000BE8112960D911D912D913C911597801A47
:1005B000910AA20AB30A86169706A806B90608F495
:1005C00072C0F601A481B5812D813E812A173B07B7
:1005D00009F0AEC0D90118968D919C911997958319
:1005E000848319961C921E921897ED81FE81868154
:1005F0009781009741F120813181428536FFC0C04B
:10060000386031832083442309F4ABC0DC01ED91D1
:10061000FC910190F081E02D0995AD81BE818D9115
:100620009C9188279073892B09F09EC00E94E0015D
:10063000ED81FE81628373838483958380819181C0
:10064000977F91838083AD81BE818D919C9111971D
:1006500096FF0CC0F60184819581009709F0AAC02D
:10066000B583A48319961C921E921897AD81BE8102
:1006700018960D90BC91A02DBE83AD8368CF0E94CB
:10068000E001ED81FE8182809380A480B5806819AD
:1006900079098A099B0930E020E060177107820719
:1006A000930708F08ECF0E94E0016419750986094E
:1006B000970929813A814B815C816217730784070E
:1006C000950708F42ECF26960FB6F894DEBF0FBE1E
:1006D000CDBFDF91CF911F910F91FF90EF90DF90F1
:1006E000CF90BF90AF909F908F907F906F905F90D2
:1006F0004F9008952FB7F89480916F0290917002F7
:10070000A0917102B09172022FBFED81FE814281F2
:10071000538164817581841B950BA60BB70B30E068
:1007200020E080179107A207B30708F4BCCF49CF98
:100730001896ED91FC911997309709F456CF908552
:1007400081852D813E812E173F0739F418969C93A1
:10075000189719968C93D90144CFDF01E92FF82F10
:10076000EBCFFC01099559CF2FB7F89460916F0238
:100770007091700280917102909172022FBF58CFD8
:10078000AD81BE8111961C921E9217961C921E92EC
:10079000169719961C921E921897442341F0DC017B
:1007A000ED91FC910190F081E02D09954CCFFC0179
:1007B000099549CF0E9405024B015C018D819E8104
:1007C0000E940502D60114960D911C91159768158B
:1007D00079058A059B0548F4ED81FE811187008724
:1007E0001596FC93EE93149741CFD8011896ED908F
:1007F000FC90E114F104F1F0C7010E9405024B01E5
:100800005C018D819E810E940502681579058A052B
:100810009B0558F42D813E81F80131872087D9014D
:100820001996FC92EE92189721CF8701F701E08488
:10083000F184DFCFED81FE81D8011996FC93EE9310
:1008400018971186108612CF8F929F92AF92BF9207
:10085000CF92DF92EF92FF924B015C010E94E00188
:100860006B017C010E94E0016C197D098E099F09D2
:10087000683E734081059105A8F321E0821A910832
:10088000A108B10888EEC80E83E0D81EE11CF11C57
:1008900081149104A104B10429F7FF90EF90DF9037
:1008A000CF90BF90AF909F908F9008950895089536
:1008B000AF92BF92CF92DF92EF92FF920F931F936E
:1008C000CF93DF936C017B018B01040F151FEB01AC
:1008D0005E01AE18BF08C017D10759F06991D60163
:1008E000ED91FC910190F081E02DC6010995892BD5
:1008F00079F7C501DF91CF911F910F91FF90EF9094
:10090000DF90CF90BF90AF9008950F931F93CF9338
:10091000DF93EC018A81882321F061E088810E94C5
:10092000A00160E088810E946E0183E090E0019761
:10093000F1F761E088810E946E0183E290E0019707
:10094000F1F760E088810E946E018A81882321F09E
:1009500060E088810E94A0010E94E0016B837C839B
:100960008D839E8389810E944101892B99F40E9485
:10097000E0010B811C812D813E81601B710B820B7C
:10098000930B0F81188529853A85061717072807C5
:10099000390740F70E94E0016B837C838D839E833F
:1009A00089810E944101892B99F00E94E0010B810D
:1009B0001C812D813E81601B710B820B930B0F817B
:1009C000188529853A85061717072807390740F73C
:1009D0000E94E0012B813C81CB01821B930BDF91B4
:1009E000CF911F910F91089581E00895089520916E
:1009F000CB01260F3327331F21323105ECF4209130
:100A00004702FC0190E080E0243069F082E0089524
:100A1000A091CB012191AC0145555E4FA40FB52F9C
:100A2000B11D2C930196861798F38091CB01680F26
:100A30006093CB0180E0089581E008951092470211
:100A400081E0809346021092410261E082E10E94BF
:100A50006E0161E083E10E946E01E9EBF0E08081CC
:100A60008E7F808380818D7F808388E48093B8002F
:100A700085E48093BC000895CF93DF9391E0909339
:100A8000AA018823B9F0C091B800D091BA00809132
:100A9000BC008A7B8093BC0060E082E10E946E0112
:100AA00060E083E10E946E010E941E05D093BA00AF
:100AB000C093B800DF91CF9108950895E0914E0260
:100AC00080914D02E81730F4F0E0E15BFD4F80814A
:100AD00090E008958FEF9FEF089590914E028091DE
:100AE0004D022FEF3FEF981748F4E92FF0E0E15B5C
:100AF000FD4F208130E09F5F90934E02C901089521
:100B000080914D0290914E02891B990B0895CF92CE
:100B1000DF92EF92FF920F931F93CF93DF937C01AD
:100B2000CB018A012091FD01222389F0EB016B01A9
:100B3000C40ED51ECC15DD0569F06991D701ED9184
:100B4000FC910190F081E02DC7010995F3CF642F4E
:100B50000E94F704C801DF91CF911F910F91FF9080
:100B6000EF90DF90CF900895CF93DF931F92CDB792
:100B7000DEB769832091FD012223F9F02091200244
:100B8000203258F021E030E0FC013383228390E0F2
:100B900080E00F90DF91CF9108958091FE01E82FC2
:100BA000F0E0E150FE4F998190838F5F8093FE01CA
:100BB0008093200281E090E0ECCF61E0CE010196CD
:100BC0000E94F704F7CF90E080E008958091FB0148
:100BD0009091FC01892B69F482E090E00E9406115B
:100BE0002EE431E0FC01318320839093FC0180935B
:100BF000FB018091FB019091FC0108950F931F93DD
:100C0000CF93DF93DC0119962C912F3FE9F08A01F5
:100C1000EC010E94E605DC01ED91FC910480F58178
:100C2000E02D42E0698509950E94E605DC01ED9121
:100C3000FC910284F385E02D22E0A8016985DF9113
:100C4000CF911F910F910994DF91CF911F910F9137
:100C50000895FC0101900020E9F73197AF01481B8E
:100C6000590BBC0180EA92E00C9458040C94A21138
:100C70000C94A2118F929F92AF92BF92CF92DF926B
:100C8000EF92FF920F931F93CF93DF93EC018F812D
:100C900001E0882309F4C0C01F828A819B812C81D6
:100CA00031E03093FD0120931F021092FE0110925B
:100CB0002002DC01ED91FC910190F081E02D6E812C
:100CC00009950091200281E0013208F09CC010914A
:100CD0001F020E94E0016B017C018091470281119B
:100CE0006CC082E08093470281E0809346028FEFE0
:100CF000809345021092440200934302AFEFB1E0AB
:100D0000E1E2F2E080E00813F9C010924202809123
:100D10004202110F182B1093420280914102813040
:100D200009F0F0C0109241020E94E0016B017C01C9
:100D3000809142028093BB008091490290914A02C7
:100D4000A0914B02B0914C02892B8A2B8B2BA1F0E6
:100D50000E94E0010091490210914A0220914B0249
:100D600030914C026C197D098E099F0906171707EF
:100D70002807390708F442C08091BC0083FDD8CF12
:100D800085EC8093BC000E94E0016B017C018091A6
:100D90004702823009F4B8C0809145028F3F09F4C0
:100DA000D5C080914502803209F4D2C080914502BD
:100DB000803309F4CFC084E026C08091490290912D
:100DC0004A02A0914B02B0914C02892B8A2B8B2BAB
:100DD00009F483CF0E94E0018090490290904A027A
:100DE000A0904B02B0904C026C197D098E099F09AE
:100DF00086169706A806B90608F06FCF80914802BC
:100E00000E943C0585E01092FE0110922002109293
:100E1000FD0101E0811100E08885882309F4DBC031
:100E20001C810E94E0016B017C01809147028111CD
:100E300093C081E080934702809346029FEF909396
:100E40004502109244021092430280934202809124
:100E50004202110F182B10934202809141028130FF
:100E600009F0C7C0109241020E94E0016B017C01B1
:100E7000809142028093BB008091490290914A0286
:100E8000A0914B02B0914C02892B8A2B8B2BA1F0A5
:100E90000E94E0018090490290904A02A0904B028B
:100EA000B0904C026C197D098E099F098616970631
:100EB000A806B90608F471C08091BC0083FDD8CFA4
:100EC00085EC8093BC000E94E0016B017C01809165
:100ED0004702813009F48FC0809144028111ADC076
:100EE00080914402E1E2F2E0AFE4B2E090E09817D2
:100EF00009F458C021912D939F5FF9CF9D91919353
:100F00008F5F01CF85EE3DCF8091490290914A02DB
:100F1000A0914B02B0914C02892B8A2B8B2B09F4A8
:100F200036CF0E94E0010091490210914A022091BF
:100F30004B0230914C026C197D098E099F090617EE
:100F400017072807390708F022CF58CF80E05BCF7A
:100F500082E059CF83E057CF8091490290914A02B5
:100F6000A0914B02B0914C02892B8A2B8B2B09F458
:100F70005CCF0E94E0018090490290904A02A090CC
:100F80004B02B0904C026C197D098E099F098616A0
:100F90009706A806B90608F048CF809148020E943B
:100FA0003C0580E010924E0280934D028A819B8125
:100FB000DC01ED91FC910084F185E02D0995892BF0
:100FC00051F08A819B81DC01ED91FC910284F385D3
:100FD000E02D09958D83802FDF91CF911F910F9187
:100FE000FF90EF90DF90CF90BF90AF909F908F9049
:100FF000089585EE66CF8091490290914A02A091B2
:101000004B02B0914C02892B8A2B8B2B09F45FCFBA
:101010000E94E0018090490290904A02A0904B0209
:10102000B0904C026C197D098E099F0986169706AF
:10103000A806B90608F04BCFB0CF81E053CFCF93CD
:10104000DF93EC018B8D9C8DDC01ED91FC91068092
:10105000F781E02D41E06E8109958B8D9C8DDC013F
:10106000ED91FC910484F585E02D09958B8D9C8D87
:10107000DC01ED91FC910680F781E02D40E06E816E
:1010800009958B8D9C8DDC01ED91FC910484F58597
:10109000E02DDF91CF910994CF92DF92EF92FF92F2
:1010A0000F931F93CF93DF938C016C0127E0C20E47
:1010B000D11CD0E0C0E0E62EF12CD8015B968D91DA
:1010C0009C91F60161916F01A7010C2E02C055950C
:1010D00047950A94E2F74170DC01ED91FC9106809E
:1010E000F781E02D09952196C430D10531F7C8016B
:1010F000DF91CF911F910F91FF90EF90DF90CF90F4
:101100000C941F08CF92DF92EF92FF920F931F93E0
:10111000CF93DF93EC01F62E8B8D9C8DDC01ED914E
:10112000FC910680F781E02D6C8109956D816F3F00
:1011300051F08B8D9C8DDC01ED91FC910680F78147
:10114000E02D40E009950F2D10E08F8584FF32C01F
:101150006E01B7E0CB0ED11CF12CE12C8B8D9C8D58
:10116000F60161916F01A8010E2C02C055954795BB
:101170000A94E2F74170DC01ED91FC910680F78161
:10118000E02D0995BFEFEB1AFB0AE8E0EE16F1043B
:1011900029F7CE010E941F086A8970E083E792E078
:1011A000DF91CF911F910F91FF90EF90DF90CF9043
:1011B0000C946C02B80184E0759567958A95E1F707
:1011C000CE010E944C086F2DCE010E944C08E4CF46
:1011D00040E0682F80EA92E00C9482089091B60279
:1011E000691710F06FEF690FE62FF0E0E056FD4F42
:1011F0009789890F80680C94E80881E00E94E808CC
:1012000060ED77E083E792E00C946C0241E00E948D
:10121000820881E090E008950F931F93CF93DF93AE
:101220008B0128E0829FC001112480640E94E8089D
:10123000E801085F1F4F699180EA92E00E94060969
:10124000C017D107C1F7DF91CF911F910F9108957A
:10125000FF920F931F93CF93DF93C82F162F70E049
:1012600090E080E00E94371020E030E040EA50E457
:101270000E94960F0E947F0F0E940810062F82E0A6
:101280000E94E80860ED77E083E792E00E946C023C
:101290006C2F82E00E94EE08D5E0C1E084E0F82ED9
:1012A000F10E65E00C1728F06F2D6D1BD11708F4B7
:1012B00064E080EA92E00E940609CF5FDB5FCF30F6
:1012C00081F7DF91CF911F910F91FF90089585EDE8
:1012D0008093BC008091490290914A02A0914B02F8
:1012E000B0914C020796A11DB11D23E0B695A795BC
:1012F000979587952A95D1F72091BC0024FD03C0CE
:101300001092470208954091490250914A0260911B
:101310004B0270914C02452B462B472B69F30097EB
:10132000A105B10541F025E32A95F1F700000197E9
:10133000A109B109E1CF809148020C943C051F92AC
:101340000F920FB60F9211242F933F934F935F93F9
:101350006F937F938F939F93AF93BF93EF93FF937D
:10136000E0914201F09143010995FF91EF91BF9106
:10137000AF919F918F917F916F915F914F913F912D
:101380002F910F900FBE0F901F9018951F920F92E4
:101390000FB60F9211242F933F934F935F936F9348
:1013A0007F938F939F93AF93BF93EF93FF93E091BE
:1013B0004001F09141010995FF91EF91BF91AF91EB
:1013C0009F918F917F916F915F914F913F912F915D
:1013D0000F900FBE0F901F9018951F920F920FB68F
:1013E0000F9211242F933F938F939F93AF93BF93AB
:1013F00080916F0290917002A0917102B09172027F
:101400003091F60123E0230F2D3758F50196A11DE9
:10141000B11D2093F60180936F0290937002A09308
:101420007102B09372028091F7019091F801A0913E
:10143000F901B091FA010196A11DB11D8093F70148
:101440009093F801A093F901B093FA01BF91AF9185
:101450009F918F913F912F910F900FBE0F901F90F2
:10146000189526E8230F0296A11DB11DD2CF1F9219
:101470000F920FB60F9211242F933F934F935F93C8
:101480006F937F938F939F93AF93BF93EF93FF934C
:101490008091B900887F803609F44AC0F0F588321F
:1014A00009F4A7C018F5803109F49BC0B8F488236B
:1014B00009F4F9C0883009F494C0FF91EF91BF910D
:1014C000AF919F918F917F916F915F914F913F91DC
:1014D0002F910F900FBE0F901F901895883109F42F
:1014E00088C0803251F78093450214C0803409F4DB
:1014F0009DC040F48033B9F38833F9F680934502F8
:1015000085ECB0C0803509F485C0883509F496C0F3
:10151000883499F60E946709D0CF883909F48CC0C5
:1015200038F5883729F050F4883611F0803729F6DD
:1015300083E0809347021092ED0157C0883809F488
:101540007BC0803919F0803809F0B7CF8091ED0168
:10155000803208F071C0E091ED0181E08E0F809340
:10156000ED018091BB00F0E0E353FE4F80833DC06E
:10157000803B39F0E0F4803A09F479C0883A09F008
:101580009CCF84E0809347021092CC011092CB0153
:10159000E091F001F091F10109958091CB01811169
:1015A0000FC081E08093CB011092AB0109C0803C59
:1015B00009F4A6CF883C09F4A3CF883B09F07DCF7E
:1015C000E091CC0181E08E0F8093CC01F0E0E555F5
:1015D000FE4F80818093BB009091CC018091CB0124
:1015E00029C0809142028093BB0085EC8093BC00AF
:1015F00064CF9091440280914302981758F5E0918E
:10160000440281E08E0F80934402F0E0EF5DFD4FD5
:101610008081E9CFE091440281E08E0F8093440203
:101620008091BB00F0E0EF5DFD4F8083909144021C
:10163000809143029817C8F285E8D8CFE091440220
:1016400081E08E0F809344028091BB00F0E0EF5D5B
:10165000FD4F80838091460281115CCF81E08093B1
:10166000410284EA8093BC001092470226CF85ECA9
:101670008093BC00109247028091ED01803230F4DB
:10168000E091ED01F0E0E353FE4F10826091ED0137
:1016900070E0E091EE01F091EF018DEC91E00995A1
:1016A0001092ED010ACF1092450234CFCF92DF9213
:1016B000EF92FF92CF9384E691E09093740280932F
:1016C000730286E08093790210927D021092780274
:1016D0001092770210927B0210927A0282E490E0DC
:1016E0000E940611FC019C012E5B3F4F1186108663
:1016F00011821082178216823B96E217F307B1F728
:10170000909376028093750210928102109280026B
:1017100088EE93E0A0E0B0E0809382029093830291
:10172000A0938402B09385028AE691E090937F02B1
:1017300080937E021092A3021092A20282E991E0AD
:101740009093A1028093A0028AE090E00E9406118B
:10175000DC018CE791E011969C938E938EE792E0EA
:1017600013969C938E93129787E214968C931497FA
:1017700016961C92169715961C9215978FEF199630
:101780008C93199791E017969C93179718961C9233
:1017900018971092A4029093A50292E09093A6024B
:1017A0008093B5021092B4021092B302109719F40C
:1017B0000E94E605DC01B093BC02A093BB0288E264
:1017C0008093B20284E08093A70285E08093A80210
:1017D00086E08093A90287E08093AA021092AB0270
:1017E0001092AC021092AD021092AE021092AF02B3
:1017F00083E08093B5021092B4021092B302ED918F
:10180000FC9111970480F581E02D41E063E0CD016A
:101810000995C091B502CF3FB9F12091B302309143
:10182000B4022230310509F091C061E08C2F0E9492
:10183000A001EC2FF0E0E255FF4FE491E33009F412
:1018400067C050F4E130E1F0E23009F45BC060E0E1
:101850008C2F0E946E0118C0E73009F465C0E83093
:1018600009F46BC0E43099F7809180008062809326
:10187000800081E090E090938B0080938A0004C008
:1018800084B5806884BDE7BD82E08093950284E0E2
:10189000809396021092970261E082E00E94A0017C
:1018A00060E0809196020E94A00180E2C82E8EE442
:1018B000D82EE12CF12CC0929C02D0929D02E09295
:1018C0009E02F0929F0287E080938A0288E08093D4
:1018D0008B0210928C0261E087E00E94A00160E020
:1018E00080918B020E94A001C0929102D09292023C
:1018F000E0929302F0929402CF91FF90EF90DF90EC
:10190000CF90089584B5806284BD81E088BDBCCF4E
:101910008091800080688093800081E090E09093C7
:10192000890080938800B0CF8091B0008068809358
:10193000B00081E08093B300A7CF8091B0008062B7
:101940008093B00081E08093B4009ECF8091BB0271
:101950009091BC0241E02130310509F440E0DC0106
:10196000ED91FC910680F781E02D6C2F09958CCFCD
:10197000789484B5826084BD84B5816084BD85B56A
:10198000826085BD85B5816085BD80916E00816076
:1019900080936E001092810080918100826080931C
:1019A000810080918100816080938100809180001E
:1019B0008160809380008091B10084608093B10049
:1019C0008091B00081608093B00080917A00846043
:1019D00080937A0080917A00826080937A0080916F
:1019E0007A00816080937A0080917A008068809389
:1019F0007A001092C10010924E0210924D02109285
:101A0000FE01109220020E941E0586E594E090934C
:101A1000F1018093F00187E594E09093EF018093CA
:101A2000EE0164E670E080E090E00E942404809182
:101A3000BB029091BC02892B31F40E94E605909381
:101A4000BC028093BB028091AF0288608093AF029A
:101A500082E08093B6021092B70280E48093B802CD
:101A600080E18093B90280E58093BA028091BB0245
:101A70009091BC02DC01ED91FC910480F581E02D98
:101A800041E06091A40209956091A5026F3F61F069
:101A90008091BB029091BC02DC01ED91FC9104802D
:101AA000F581E02D41E009958091BB029091BC0247
:101AB000DC01ED91FC910480F581E02D41E0609125
:101AC000A6020995C0EAD2E09E01205A32408091D8
:101AD000AF0284FD14C084E090E0219628173907F6
:101AE0008CF48091BB029091BC02DC01ED91FC91E1
:101AF0000480F581E02D41E06E810995E5CF88E015
:101B000090E0EBCF60E573EC83E792E00E946C021B
:101B10008091BB029091BC02DC01ED91FC910680AA
:101B2000F781E02D40E06091A40209958091BB020D
:101B30009091BC02DC01ED91FC910680F781E02DD3
:101B400040E06091A60209956091A5026F3F61F0A7
:101B50008091BB029091BC02DC01ED91FC9106806A
:101B6000F781E02D40E009958091BB029091BC0285
:101B7000DC01ED91FC910484F585E02D09958091BF
:101B8000AF0284FDB0C063E080EA92E00E944C089E
:101B900064E971E183E792E00E946C0263E080EA0D
:101BA00092E00E944C0864E971E183E792E00E94B0
:101BB0006C0263E080EA92E00E944C0866E970E003
:101BC00083E792E00E946C0262E080EA92E00E9469
:101BD0004C088091AF0280620E94E80884E0809304
:101BE000B0028CE00E94E8080E94FD0882E0809329
:101BF000B10286E00E94E80808E111E0C0E0B80107
:101C00008C2F0E940C09CF5F085F1F4FC630B9F7B9
:101C100060E171E085E00E940C0968E071E086E017
:101C20000E940C0960E071E087E00E940C0964E604
:101C300070E080E090E00E9424040E94FD0860E0D3
:101C400082E00E94EE088AE991E00E94290661E0A4
:101C500089E00E94EE0880EA91E00E94290668EE81
:101C600073E080E090E00E94240408E310E096E432
:101C7000792E24E8422E34E8C32ED12C4CE7A42E32
:101C8000B12C50E0E52E50E0F52E66E4662E55248A
:101C900053948CE7382E85E992E00E948504B801C0
:101CA0000E94370F4B01C62F8AE892E00E948504FC
:101CB000B8010E94370F262FC40199278339910557
:101CC00060F11092F501D1E0CB0199278C39910593
:101CD00090F11092F40199249394DD2309F48DC0BE
:101CE0009D2E812C99C080620E94E80864E971E110
:101CF00083E792E00E946C028091AF0280620E94B2
:101D0000E80866E970E083E792E00E946C02809147
:101D1000AF0280620E94E8085CCF099718F46092D5
:101D2000F501D1CFCC3020F0C4EFC80DD0E0CCCF3E
:101D3000D0E0C0E0C9CF0A9718F46092F401CBCF8D
:101D40002D3008F483C023EF260F912CDD2309F4F6
:101D500054C0812C253808F024E8842D821B879DEF
:101D6000C0011124B6010E944B0FC62F912C809107
:101D7000F501881204C08091F4018C1789F10E944A
:101D8000FD0860E080E00E94EE0866E080EA92E0F4
:101D90000E940609DD2309F444C08091F3018111FA
:101DA0003DC05092F30160E088E00E94EE0886EAB0
:101DB00091E00E94290661E080E00E94EE0867E061
:101DC00080EA92E00E9406099920D9F18091F201FF
:101DD000882361F11092F2018092F501C093F40121
:101DE0006CEB72E080E090E00E942404E114F104C6
:101DF00009F451CF0E9400004CCFCD3708F0CCE75A
:101E0000832D8C1B879DC0011124B5010E944B0FAF
:101E1000862E992009F49ECFC0E0A9CF1092F3013D
:101E2000CACF682D80E00E942809C5CF5092F201E8
:101E300061E088E00E94EE0886EA91E00E942906AF
:101E4000CBCF6C2F81E00E942809C6CF20E07DCF48
:101E500084E691E0909374028093730280917502FE
:101E600090917602009711F00C94A2110895AA1B8C
:101E7000BB1B51E107C0AA1FBB1FA617B70710F075
:101E8000A61BB70B881F991F5A95A9F780959095A7
:101E9000BC01CD01089597FB072E16F4009407D0DE
:101EA00077FD09D00E94370F07FC05D03EF49095CE
:101EB00081959F4F0895709561957F4F0895A29FDA
:101EC000B001B39FC001A39F700D811D1124911D0E
:101ED000B29F700D811D1124911D08950E945F0F06
:101EE000A59F900DB49F900DA49F800D911D11246E
:101EF0000895EE0FFF1F0590F491E02D09940E94C4
:101F0000E71090F09F3748F4911116F40C940011EB
:101F100060E070E080E89FE3089526F01B16611DE5
:101F2000711D811D0C947A100C9495100E94AA0FBB
:101F30000C94B4100E94AD1058F00E94A61040F00E
:101F400029F45F3F29F00C94741051110C94001186
:101F50000C94A3100E94C51068F39923B1F3552384
:101F600091F3951B550BBB27AA27621773078407AC
:101F700038F09F5F5F4F220F331F441FAA1FA9F342
:101F800035D00E2E3AF0E0E832D091505040E69530
:101F9000001CCAF72BD0FE2F29D0660F771F881F91
:101FA000BB1F261737074807AB07B0E809F0BB0B84
:101FB000802DBF01FF2793585F4F3AF09E3F510598
:101FC00078F00C9474100C9400115F3FE4F3983E89
:101FD000D4F3869577956795B795F7959F5FC9F781
:101FE000880F911D9695879597F90895E1E0660F02
:101FF000771F881FBB1F621773078407BA0720F07B
:10200000621B730B840BBA0BEE1F88F7E0950895E3
:102010000E94CD1088F09F5798F0B92F9927B7519B
:10202000B0F0E1F0660F771F881F991F1AF0BA957C
:10203000C9F714C0B13091F00E94FF10B1E00895CB
:102040000C94FF10672F782F8827B85F39F0B93FBD
:10205000CCF3869577956795B395D9F73EF490952F
:102060008095709561957F4F8F4F9F4F0895E894AD
:1020700009C097FB3EF490958095709561957F4FD0
:102080008F4F9F4F9923A9F0F92F96E9BB2793957E
:10209000F695879577956795B795F111F8CFFAF48E
:1020A000BB0F11F460FF1BC06F5F7F4F8F4F9F4FBF
:1020B00016C0882311F096E911C0772321F09EE81D
:1020C000872F762F05C0662371F096E8862F70E083
:1020D00060E02AF09A95660F771F881FDAF7880F5D
:1020E0009695879597F9089597F99F6780E870E02E
:1020F00060E00895882371F4772321F09850872BAE
:10210000762F07C0662311F499270DC09051862BB6
:1021100070E060E02AF09A95660F771F881FDAF763
:10212000880F9695879597F908959F3F31F09150C4
:1021300020F4879577956795B795880F911D9695AB
:10214000879597F908959FEF80EC089500240A94ED
:102150001616170618060906089500240A94121682
:102160001306140605060895092E0394000C11F4B5
:10217000882352F0BB0F40F4BF2B11F460FF04C062
:102180006F5F7F4F8F4F9F4F089557FD9058440FBB
:10219000551F59F05F3F71F04795880F97FB991FC6
:1021A00061F09F3F79F08795089512161306140683
:1021B000551FF2CF4695F1DF08C016161706180610
:1021C000991FF1CF869571056105089408950E94C5
:1021D000CD10A0F0BEE7B91788F4BB279F3860F494
:1021E0001616B11D672F782F8827985FF7CF869531
:1021F00077956795B11D93959639C8F30895E8943E
:10220000BB2766277727CB0197F908950F931F9374
:10221000CF93DF938230910510F482E090E0E0915B
:10222000BF02F091C00230E020E0B0E0A0E03097C3
:1022300099F42115310509F44AC0281B390B2430C3
:102240003105D8F58A819B816115710589F1FB0102
:1022500093838283FE0111C04081518102811381E9
:1022600048175907E0F04817590799F4109761F09B
:1022700012960C93129713961C933296CF01DF910E
:10228000CF911F910F9108950093BF021093C00248
:10229000F4CF2115310551F04217530738F0A90149
:1022A000DB019A01BD01DF01F801C1CFEF01F9CFD8
:1022B0009093C0028093BF02CDCFFE01E20FF31FC7
:1022C000819391932250310939832883D7CF20916C
:1022D000BD023091BE02232B41F420914601309182
:1022E00047013093BE022093BD02209144013091FA
:1022F00045012115310541F42DB73EB74091480104
:1023000050914901241B350BE091BD02F091BE02B2
:10231000E217F307A0F42E1B3F0B2817390778F0BC
:10232000AC014E5F5F4F2417350748F04E0F5F1F1B
:102330005093BE024093BD02819391939FCFF0E0F2
:10234000E0E09CCFCF93DF930097E9F0FC01329758
:1023500013821282A091BF02B091C002ED0130E061
:1023600020E01097A1F420813181820F931F2091EA
:10237000BD023091BE022817390709F061C0F09301
:10238000BE02E093BD02DF91CF910895EA01CE171E
:10239000DF07E8F54A815B819E0141155105B1F7E0
:1023A000E901FB83EA8349915991C40FD51FEC17CA
:1023B000FD0761F4808191810296840F951FE901E8
:1023C00099838883828193819B838A83F0E0E0E014
:1023D00012968D919C9113970097B9F52D913C9190
:1023E0001197CD010296820F931F2091BD0230916B
:1023F000BE022817390739F6309751F51092C002FE
:102400001092BF02B093BE02A093BD02BCCFD38393
:10241000C28340815181840F951FC817D90761F489
:102420004E5F5F4F88819981480F591F51834083C8
:102430008A819B81938382832115310509F0B0CF76
:10244000F093C002E093BF029ECFFD01DC01C0CF3C
:1024500013821282D7CF10E0C2E6D0E004C0FE01A2
:102460000E94790F2196C336D107C9F7F894FFCFA0
:10247000000E1F1F0208020000111F1F1F1F000077
:10248000000000000000001F001010001010001FCE
:10249000001818001818001F001C1C001C1C001F2E
:1024A000001E1E001E1E001F001F1F001F1F001FFA
:1024B0008D008D000000C1028000000000001701A7
:1024C0003806DC019C016A01EE00F404E000D20051
:1024D000000000006C0200000000B4058705E30561
:1024E0005D0580056D055E0500000000D100360623
:1024F000BB00A0009600FE053A068E009300000087
:10250000000006095804E305F604574154455200FB
:0A2510004C4556454C002D2D0000EF
:00000001FF
