:100000000C9463000C94040D0C94DD0C0C948B0088
:100010000C948B000C948B000C948B000C948B0034
:100020000C948B000C948B000C948B000C948B0024
:100030000C948B000C948B000C948B000C948B0014
:100040000C946D030C948B000C94F4030C94CE036D
:100050000C948B000C948B000C948B000C948B00F4
:100060000C94EB040C948B0000000000240027008B
:100070002A00010204081020408001020408102018
:1000800001020408102000000000250028002B00B9
:1000900000000000230026002900040404040404D6
:1000A000040402020202020203030303030300002A
:1000B0000008000201000003040700000000000027
:1000C00000004110CF1111241FBECFEFD8E0DEBFDA
:1000D000CDBF12E0A0E0B1E0E4E0FAE202C005909A
:1000E0000D92AC37B107D9F724E0ACE7B2E001C01C
:1000F0001D92A033B207E1F710E0C2E6D0E004C0E1
:100100002197FE010E944212C136D107C9F70E9411
:100110002B0D0C94F5140C94000008950895CF92C3
:10012000DF92EF92FF920F931F93CF93DF936C01B7
:100130007A018B01C0E0D0E0CE15DF0581F0D80157
:100140006D918D01D601ED91FC910190F081E02D32
:10015000C6010995892B11F02196EECF7E01C701CA
:10016000DF91CF911F910F91FF90EF90DF90CF9093
:100170000895FC01538D448D252F30E0842F90E0AD
:10018000821B930B541710F0CF9608950197089592
:10019000FC01918D828D981761F0828DDF01A80F8F
:1001A000B11D5D968C91928D9F5F9F73928F90E0B1
:1001B00008958FEF9FEF0895FC01918D828D981720
:1001C00031F0828DE80FF11D858D90E008958FEF5D
:1001D0009FEF0895FC01918D228D892F90E0805C26
:1001E0009F4F821B91098F739927089580E593E0B3
:1001F0000E94EA0021E0892B09F420E0822F089573
:10020000FC01848DDF01A80FB11DA35ABF4F2C91B3
:10021000848D90E001968F739927848FA689B78982
:100220002C93A089B1898C91837080648C93938D79
:10023000848D981306C00288F389E02D80818F7D1C
:1002400080830895EF92FF920F931F93CF93DF93D4
:10025000EC0181E0888F9B8D8C8D981305C0E88917
:10026000F989808185FD26C0F62E0B8D10E00F5F89
:100270001F4F0F731127E02E8C8DE8120CC00FB6A4
:1002800007FCFACFE889F989808185FFF5CFCE0197
:100290000E940001F1CF8B8DFE01E80FF11DE35AA2
:1002A000FF4FF0829FB7F8940B8FEA89FB8980811A
:1002B00080620AC09FB7F894EE89FF896083E8895D
:1002C000F98980818370806480839FBF81E090E0A2
:1002D000DF91CF911F910F91FF90EF900895CF93F1
:1002E000DF93EC01888D8823C9F0EA89FB8980813E
:1002F00085FD05C0A889B9898C9186FD0FC00FB610
:1003000007FCF5CF808185FFF2CFA889B9898C9150
:1003100085FFEDCFCE010E940001E7CFDF91CF91A5
:10032000089580E090E0892B29F00E94F600811169
:100330000C9400000895CF93DF93EC018B8D9C8D7E
:10034000DC01ED91FC910680F781E02D41E06E81AA
:1003500009958B8D9C8DDC01ED91FC910484F585D4
:10036000E02D09958B8D9C8DDC01ED91FC91068033
:10037000F781E02D40E06E8109958B8D9C8DDC012D
:10038000ED91FC910484F585E02DDF91CF910994E6
:10039000CF92DF92EF92FF920F931F93CF93DF9351
:1003A0008C016C0127E0C20ED11CC0E0D0E0E62E2B
:1003B000F12CD8015B968D919C915C97F60161912F
:1003C0006F01A7010C2E02C0559547950A94E2F7DC
:1003D0004170DC01ED91FC910680F781E02D0995DB
:1003E0002196C430D10529F7C801DF91CF911F9123
:1003F0000F91FF90EF90DF90CF900C949B0181E0E4
:10040000089540919D02262F30E0240F311D2132A6
:100410003105DCF4209116032430C9F4FC0180E09E
:1004200090E0861758F430919D022191DC01A35889
:10043000BD4FA30FB11D2C930196F3CF80919D0268
:10044000680F60939D0280E0089581E0089582E046
:1004500008950895E0911D0380911C03E81730F47E
:10046000F0E0E25EFC4F808190E008958FEF9FEF17
:10047000089590911D0380911C03981750F4E92F63
:10048000F0E0E25EFC4F208130E09F5F90931D031F
:1004900002C02FEF3FEFC901089580911C0390E047
:1004A00020911D03821B91090895CF92DF92EF9254
:1004B000FF920F931F93CF93DF937C01CB018A01AF
:1004C0002091CD02222389F0EB016B01C40ED51ED1
:1004D000CC15DD0569F06991D701ED91FC91019092
:1004E000F081E02DC7010995F3CF642F0E9401022E
:1004F000C801DF91CF911F910F91FF90EF90DF9096
:10050000CF900895CF93DF931F92CDB7DEB7698365
:100510002091CD022223D1F02091EF02203240F031
:1005200021E030E0FC013383228380E090E015C0BD
:100530008091CE02E82FF0E0E153FD4F9981908346
:100540008F5F8093CE028093EF0205C061E0CE0101
:1005500001960E94010281E090E00F90DF91CF911F
:100560000895089580E090E008950E94F01410929C
:10057000160381E0809315031092100361E082E17D
:100580000E94A60961E083E10E94A609E9EBF0E080
:1005900080818E7F808380818D7F808388E48093BB
:1005A000B80085E48093BC0008953FB7F89480912B
:1005B000C9029091CA02A091CB02B091CC0226B59B
:1005C000A89B05C02F3F19F00196A11DB11D3FBF8B
:1005D000BA2FA92F982F8827820F911DA11DB11D19
:1005E000BC01CD0142E0660F771F881F991F4A9515
:1005F000D1F708950F931F93CF93DF93EC018A8176
:10060000882321F061E088810E94D90960E0888117
:100610000E94A60983E090E00197F1F761E08881EC
:100620000E94A60983E290E00197F1F760E08881DB
:100630000E94A6098A81882321F060E088810E94B7
:10064000D9090E94D5026B837C838D839E83898127
:100650000E947909892BA9F40E94D5020B811C8183
:100660002D813E81DC01CB01801B910BA20BB30BD2
:100670000F81188529853A85081719072A073B072E
:1006800030F70E94D5026B837C838D839E838981A2
:100690000E947909892BA9F00E94D5020B811C8147
:1006A0002D813E81DC01CB01801B910BA20BB30B92
:1006B0000F81188529853A85081719072A073B07EE
:1006C00030F70E94D5022B813C81CB01821B930B1A
:1006D000DF91CF911F910F9108951F920F920FB646
:1006E0000F9211242F933F938F939F93AF93BF93B8
:1006F0008091410390914203A0914303B091440340
:100700003091C80223E0230F2D3720F40196A11D5C
:10071000B11D05C026E8230F0296A11DB11D20932F
:10072000C8028093410390934203A0934303B09384
:1007300044038091C9029091CA02A091CB02B0916A
:10074000CC020196A11DB11D8093C9029093CA02EB
:10075000A093CB02B093CC02BF91AF919F918F91A8
:100760003F912F910F900FBE0F901F90189561151C
:10077000710579F0FB0101900020E9F73197AF0195
:10078000461B570BDC01ED91FC910280F381E02DBB
:10079000099480E090E008950C94B7031F920F92A3
:1007A0000FB60F9211242F933F934F935F936F9344
:1007B0007F938F939F93AF93BF93EF93FF9380E5C6
:1007C00093E00E940001FF91EF91BF91AF919F9143
:1007D0008F917F916F915F914F913F912F910F90EA
:1007E0000FBE0F901F9018951F920F920FB60F9289
:1007F00011242F938F939F93EF93FF93E0916003C6
:10080000F09161038081E0916603F091670382FDBE
:1008100012C09081809169038F5F8F7320916A036A
:10082000821751F0E0916903F0E0E05BFC4F958F97
:100830008093690301C08081FF91EF919F918F9117
:100840002F910F900FBE0F901F901895CF92DF92AF
:10085000EF92FF920F931F93CF93DF93EC01F62E4D
:100860008B8D9C8DDC01ED91FC910680F781E02D54
:100870006C8109956D816F3F51F08B8D9C8DDC01F2
:10088000ED91FC910680F781E02D40E009958F8580
:100890000F2D10E084FF25C06E01B7E0CB0ED11CF8
:1008A000E12CF12C8B8D9C8DF60161916F01A801DB
:1008B0000E2C02C0559547950A94E2F74170DC0171
:1008C000ED91FC910680F781E02D0995BFEFEB1AC1
:1008D000FB0AE8E0EE16F10429F7CE010E949B0125
:1008E0000DC0B80184E0759567958A95E1F7CE0152
:1008F0000E94C8016F2DCE010E94C8016A8970E074
:1009000085E493E0DF91CF911F910F91FF90EF90DD
:10091000DF90CF900C94540A41E00E94260481E0BD
:1009200090E00895CF93DF9391E090937C02882329
:10093000B9F0C091B800D091BA008091BC008A7B18
:100940008093BC0060E082E10E94A60960E083E140
:100950000E94A6090E94B702D093BA00C093B800C3
:10096000DF91CF91089585ED8093BC0080911803AD
:1009700090911903A0911A03B0911B030796A11D32
:10098000B11D23E0B695A795979587952A95D1F740
:100990002091BC0024FF1CC0409118035091190302
:1009A00060911A0370911B03452B462B472B81F353
:1009B0000097A105B10541F025E32A95F1F7000064
:1009C0000197A109B109E4CF809117030C94920417
:1009D0001092160308951F920F920FB60F921124D2
:1009E0002F933F934F935F936F937F938F939F9337
:1009F000AF93BF93EF93FF938091B900887F8036C8
:100A000009F49CC068F5883209F45BC090F4803129
:100A100009F454C038F4882309F4F6C0883009F486
:100A20004DC0F6C0883109F44CC0803209F45DC075
:100A3000EFC0803409F468C048F4803309F455C02D
:100A4000883309F0E5C080931403D8C0803509F4D9
:100A50004FC0883509F45DC0883409F0D9C0D6C0CC
:100A6000883909F4C7C0A8F4883709F467C038F496
:100A7000883609F463C0803709F460C0C9C088387B
:100A800009F4B8C0803909F45FC0803809F0C0C0EB
:100A90005BC0803B09F486C038F4803A09F466C034
:100AA000883A09F47FC0B4C0803C09F4A7C0883CF0
:100AB00009F4A4C0883B09F48AC0AAC0809111033C
:100AC00010C09091130380911203981770F5E09174
:100AD000130381E08E0F80931303F0E0E051FD4F8C
:100AE00080818093BB0085EC86C0809314038EC008
:100AF000E091130381E08E0F809313038091BB007C
:100B0000F0E0E051FD4F8083909113038091120338
:100B10006EC0E091130381E08E0F809313038091E8
:100B2000BB00F0E0E051FD4F8083809115038111FF
:100B30006DC081E08093100384EA61C083E08093FC
:100B400016031092BF02CFCF8091BF02803208F00F
:100B500051C0E091BF0281E08E0F8093BF0280916F
:100B6000BB00F0E0E156FD4F8083BDCF85EC809364
:100B7000BC00109216038091BF02803230F4E091E5
:100B8000BF02F0E0E156FD4F10826091BF0270E0BD
:100B9000E091C002F091C1028FE992E009951092B4
:100BA000BF0236C084E08093160310929E0210921A
:100BB0009D02E091C202F091C302099580919D02CD
:100BC000811105C081E080939D0210927D02E09129
:100BD0009E0281E08E0F80939E02F0E0E358FD4F6D
:100BE00080818093BB0090919E0280919D02981716
:100BF00008F479CF85E88093BC000AC085EC809327
:100C0000BC001092160304C0109214030E94B30497
:100C1000FF91EF91BF91AF919F918F917F916F91D4
:100C20005F914F913F912F910F900FBE0F901F90AA
:100C30001895FC01468321E027830895FC018581F6
:100C40000895FC01858190E002C0959587956A958D
:100C5000E2F781700895FC01362F2681442371F05C
:100C600081E090E0A0E0B0E004C0880F991FAA1FC7
:100C7000BB1F6A95D2F7822B86830EC041E050E0FD
:100C800060E070E004C0440F551F661F771F3A955F
:100C9000D2F740954223468381E087830895CF931E
:100CA000DF93EC014D7FE881F981411107C081E0BC
:100CB00088870680F781E02D41E004C00680F78137
:100CC000E02D40E0CE01099581E08F83DF91CF9147
:100CD0000895E62FF0E0E656FF4FE491F0E0EE0FC6
:100CE000FF1FE057FF4FA591B4918C910895E62F17
:100CF000F0E0E656FF4FE491F0E0EE0FFF1FEA57F9
:100D0000FF4FA591B4914C930895623021F0633068
:100D100009F581E001C080E0E82FF0E0EE0FFF1F51
:100D2000E05CFE4F51834083813041F08091690047
:100D30008C7F282B20936900E89A089580916900A0
:100D4000837F94E0299F90011124282B2093690030
:100D5000E99A08950895833081F028F4813099F05C
:100D60008230A1F008958730A9F08830B9F084303E
:100D7000D1F4809180008F7D03C0809180008F77B7
:100D800080938000089584B58F7702C084B58F7DED
:100D900084BD08958091B0008F7703C08091B0002A
:100DA0008F7D8093B00008954F925F926F927F92F3
:100DB0008F929F92AF92BF92CF92DF92EF92FF926B
:100DC0000F931F93CF93DF93EC018F81882309F456
:100DD000EDC01F828C8191E09093CD0280934003FF
:100DE0001092CE021092EF028A819B81DC01ED917C
:100DF000FC910190F081E02D6E810995F090EF0259
:100E0000B0E2BF1508F4C2C0009140030E94D502B1
:100E10004B015C0110911603112311F1809118030D
:100E200090911903A0911A03B0911B03892B8A2B6F
:100E30008B2B81F30E94D502409018035090190328
:100E400060901A0370901B03DC01CB01881999098B
:100E5000AA09BB09481659066A067B06D8F682C05D
:100E600082E08093160381E0809315038FEF8093D7
:100E7000140310921303F0921203AFECB2E0E0EF10
:100E8000F2E080E0F81621F09D9191938F5FFACF08
:100E90001092110390911103802F880F892B80935A
:100EA000110380911003813089F5109210030E9484
:100EB000D5026B017C01809111038093BB0080916E
:100EC000180390911903A0911A03B0911B03892B69
:100ED0008A2B8B2BA9F00E94D5028090180390904A
:100EE0001903A0901A03B0901B03DC01CB018C19ED
:100EF0009D09AE09BF0988169906AA06BB0690F19E
:100F00008091BC0083FDD7CF85EC01C085EE809336
:100F1000BC000E94D5026B017C01809116038230D7
:100F200039F58091180390911903A0911A03B0919B
:100F30001B03892B8A2B8B2B81F30E94D502809077
:100F4000180390901903A0901A03B0901B03DC01C2
:100F5000CB018C199D09AE09BF0988169906AA060E
:100F6000BB06D8F6809117030E94920415E013C0C7
:100F7000809114038F3F79F080911403803241F007
:100F800080911403803331F014E005C011E003C0F8
:100F900012E001C013E01092CE021092EF02109204
:100FA000CD0201E0112319F000E001C001E08885C5
:100FB000882309F4D7C0FC800E94D5024B015C0154
:100FC00010911603112339F18091180390911903A0
:100FD000A0911A03B0911B03892B8A2B8B2B81F3D1
:100FE0000E94D502409018035090190360901A0394
:100FF00070901B03DC01CB0188199909AA09BB0970
:10100000481659066A067B06D8F6809117030E9497
:10101000920410E08EC081E0809316038093150344
:101020009FEF909314031092130310921203809376
:101030001103909111038F2D880F892B8093110339
:1010400080911003813089F5109210030E94D5021F
:101050006B017C01809111038093BB008091180388
:1010600090911903A0911A03B0911B03892B8A2B2D
:101070008B2BA9F00E94D502809018039090190341
:10108000A0901A03B0901B03DC01CB018C199D09C1
:10109000AE09BF0988169906AA06BB0690F1809191
:1010A000BC0083FDD7CF85EC01C085EE8093BC00EA
:1010B0000E94D5026B017C0180911603813031F5CD
:1010C0008091180390911903A0911A03B0911B030A
:1010D000892B8A2B8B2B81F30E94D50280901803D9
:1010E00090901903A0901A03B0901B03DC01CB0170
:1010F0008C199D09AE09BF0988169906AA06BB0678
:10110000D8F6809117030E94920413C080911303B4
:10111000811103C08091130301C081E0A0EFB2E010
:10112000EEE1F3E010E0181721F09D9191931F5F1D
:10113000FACF10921D0310931C038A819B81DC015E
:10114000ED91FC910084F185E02D0995892B51F0FA
:101150008A819B81DC01ED91FC910284F385E02D75
:1011600009958D83802FDF91CF911F910F91FF9073
:10117000EF90DF90CF90BF90AF909F908F907F9037
:101180006F905F904F9008950C9467140C946714BF
:10119000CF92DF92EF92FF920F931F93CF93DF9343
:1011A000FC01608171819B0122273073EB01D770B4
:1011B0002115310509F58C010E94D502F801028143
:1011C0001381248135816B017C01C01AD10AE20AA6
:1011D000F30ACE01A0E0B0E08C159D05AE05BF0579
:1011E00024F460E070E0CB0136C0BC01CD016C1985
:1011F0007D098E099F092FC0BE0180E090E0211576
:10120000304129F49E01A8EEB3E00E9428124FB7A6
:10121000F8940091410310914203209143033091CF
:1012200044034FBFC280D380E480F5800C191D09B0
:101230002E093F09601771078207930790F26B012F
:101240007C01C01AD10AE20AF30AA7019601A8EEAE
:10125000B3E00E943712DF91CF911F910F91FF9061
:10126000EF90DF90CF900895089580913E03909184
:101270003F03892B69F482E090E00E94CF132EE8AF
:1012800031E0FC013183208390933F0380933E0340
:1012900080913E0390913F0308950F931F93CF9346
:1012A000DF93DC0119962C912F3FE9F08A01EC01C4
:1012B0000E943509DC01ED91FC910480F581E02D5F
:1012C00042E0698509950E943509DC01ED91FC91A8
:1012D0000284F385E02D22E0A8016985DF91CF919A
:1012E0001F910F910994DF91CF911F910F91089554
:1012F0000895CF93DF93282F30E0F901E255FF4F97
:101300008491F901EE58FF4FD491F901E656FF4F51
:10131000C491CC2391F081110E94AB06EC2FF0E038
:10132000EE0FFF1FE057FF4FA591B491EC91ED2315
:1013300081E090E021F480E002C080E090E0DF9165
:10134000CF910895862F0E94790908951F93CF9316
:10135000DF93282F30E0F901E255FF4F8491F90126
:10136000EE58FF4FD491F901E656FF4FC491CC23BC
:10137000C1F0162F81110E94AB06EC2FF0E0EE0FAA
:10138000FF1FEA57FF4FA591B4919FB7F894111131
:1013900004C08C91D095D82302C0EC91DE2BDC9355
:1013A0009FBFDF91CF911F910895862F642F0C94DA
:1013B000A609CF93DF9390E0FC01EE58FF4F2491F4
:1013C000FC01E656FF4F8491882361F190E0880F7D
:1013D000991FFC01E859FF4FC591D491FC01EA57D0
:1013E000FF4FA591B491611109C09FB7F89488810E
:1013F000209582238883EC912E230BC0623061F408
:101400009FB7F8948881322F309583238883EC919D
:101410002E2B2C939FBF06C08FB7F894E8812E2BFC
:1014200028838FBFDF91CF910895862F642F0C946E
:10143000D9098F929F92AF92BF92CF92DF92EF9293
:10144000FF926B017C010E94D5024B015C01C1142B
:10145000D104E104F104F1F00E94D502DC01CB01DA
:1014600088199909AA09BB09883E9340A105B105CD
:1014700070F321E0C21AD108E108F10888EE880E65
:1014800083E0981EA11CB11CC114D104E104F10435
:1014900019F7DDCFFF90EF90DF90CF90BF90AF9026
:1014A0009F908F90089508954F925F926F927F92D0
:1014B0008F929F92AF92BF92CF92DF92EF92FF9264
:1014C0000F931F93CF93DF9300D000D000D0CDB700
:1014D000DEB76C017A8369830E94D5022B013C013F
:1014E00049815A819A0140E050E029833A834B8335
:1014F0005C83D6011A968C911A97882359F01A9614
:101500001C921A9719968C9119971796ED91FC9148
:1015100018970995F6010480F581E02DFE83ED838F
:101520002D813E812115310561F1D9010D911C916B
:1015300017FF27C013FD25C04DC08115904109F04C
:101540005CC18FB7F8948090410390904203A090C3
:101550004303B09044038FBF9801A8EEB3E00E940C
:101560002812ED81FE810281138124813581801A48
:10157000910AA20AB30A86169706A806B90608F0C9
:1015800048C00E94D502DC01CB0184199509A60947
:10159000B70929813A814B815C8182179307A4079F
:1015A000B50708F4A6CF26960FB6F894DEBF0FBE97
:1015B000CDBFDF91CF911F910F91FF90EF90DF9002
:1015C000CF90BF90AF909F908F907F906F905F90E3
:1015D0004F900895C801882790731770009709F0FD
:1015E000ACCF0E94D502AD81BE8112968D909D90A8
:1015F000AD90BC901597DC01CB0188199909AA0917
:10160000BB0920E030E080179107A207B30708F478
:10161000B8CFF601A481B5812D813E812A173B0701
:1016200061F4D90118968D919C91199795838483C3
:1016300019961C921E9218971AC01896ED91FC915B
:1016400019973097A1F02D813E812E173F0751F455
:10165000F9018085918519969C938E931897118630
:10166000108605C0DF010084F185E02DEACFAD8151
:10167000BE8116968D919C911797009709F457C0DB
:101680002D913C9111971A964C911A9736FF36C0BE
:1016900038602D933C93442341F0DC01ED91FC91A3
:1016A0000190F081E02D099502C0FC010995AD8102
:1016B000BE818D919C9188279073892B29F40E947B
:1016C000D502362F272F0EC08FB7F89440914103D3
:1016D0005091420360914303709144038FBF342FB4
:1016E000252FCB01ED81FE81328323838483958373
:1016F00080819181977F9183808319C0AD81BE8164
:1017000011961C921E9217961C921E92169719966D
:101710001C921E921897442341F0DC01ED91FC913C
:101720000190F081E02D099502C0FC010995AD8181
:10173000BE818D919C91119796FF56C0F6018481D0
:101740009581009739F4B583A48319961C921E9253
:1017500018974AC00E94C8084B015C018D819E8188
:101760000E94C808D60114960D911C911597681512
:1017700079058A059B0548F4ED81FE811187008774
:101780001596FC93EE9314972FC0D8011896ED9000
:10179000FC901997E114F104F1F0C7010E94C80808
:1017A0004B015C018D819E810E94C80868157905F6
:1017B0008A059B0558F42D813E81F80131872087E9
:1017C000D9011996FC92EE9218970EC08701F70185
:1017D000E084F184DFCFED81FE81D8011996FC937E
:1017E000EE93189711861086AD81BE8118960D90E4
:1017F000BC91A02DBE83AD8393CE2FB7F89480917A
:10180000410390914203A0914303B09144032FBF41
:10181000ED81FE814281538164817581841B950B2A
:10182000A60BB70BEECE40E0682F8FE094E00C944F
:101830002604643008F063E090912504691710F0E5
:101840006FEF690FE62FF0E0E15FFB4F9789890F9B
:1018500080680C94130C81E00E94130C60ED77E01B
:1018600085E493E00C94540A0F931F93CF93DF9376
:101870008B01877028E0829FC001112480640E9440
:10188000130CE801085F1F4F69918FE094E00E94FC
:101890008C04C017D107C1F7DF91CF911F910F9131
:1018A0000895FF920F931F93CF93DF93C82F162FA6
:1018B00070E080E090E00E94001320E030E040EA19
:1018C00050E40E945F120E9448120E94D112062F1B
:1018D00082E00E94130C60ED77E085E493E00E94C3
:1018E000540A6C2F82E00E94190CDFEFD10FC1E087
:1018F00084E0F82EF10E0C1710F465E007C08F2D70
:101900008D1B811710F464E001C06D2F8FE094E00F
:101910000E948C04CF5FD550CF3069F7DF91CF9113
:101920001F910F91FF900895CF92DF92EF92FF9257
:101930000F931F93CF93DF93CDB7DEB7A1970FB669
:10194000F894DEBF0FBECDBF282F30E040E050E05E
:1019500019A28E010F5D1F4F8AE0C82ED12CE12CF9
:10196000F12CCA01B901A70196010E940612605D1F
:10197000F80162938F01211531054105510589F761
:10198000BF0180E593E00E94B7038C0161EC71E038
:1019900080E593E00E94B703800F911FA1960FB6D8
:1019A000F894DEBF0FBECDBFDF91CF911F910F9195
:1019B000FF90EF90DF90CF9008951F920F920FB697
:1019C0000F9211242F933F934F935F936F937F93C5
:1019D0008F939F93AF93BF93EF93FF93E091420157
:1019E000F09143010995FF91EF91BF91AF919F91C4
:1019F0008F917F916F915F914F913F912F910F90B8
:101A00000FBE0F901F9018951F920F920FB60F9256
:101A100011242F933F934F935F936F937F938F93F3
:101A20009F93AF93BF93EF93FF93E0914001F091A9
:101A300041010995FF91EF91BF91AF919F918F91D6
:101A40007F916F915F914F913F912F910F900FBEBA
:101A50000F901F901895789484B5826084BD84B5EA
:101A6000816084BD85B5826085BD85B5816085BD99
:101A700080916E00816080936E0010928100809151
:101A800081008260809381008091810081608093D9
:101A90008100809180008160809380008091B100FE
:101AA00084608093B1008091B00081608093B00029
:101AB00080917A00846080937A0080917A008260BD
:101AC00080937A0080917A00816080937A0080917F
:101AD0007A00806880937A001092C10010921D03F2
:101AE00010921C031092CE021092EF020E94B702D5
:101AF0008DE890E09093C3028093C2028EE890E05C
:101B00009093C1028093C002E0916003F091610361
:101B100082E08083E0915C03F0915D031082E091AC
:101B20005E03F0915F0380E1808310926803E0918F
:101B30006403F091650386E08083E0916203F09195
:101B40006303808180618083E0916203F09163038D
:101B5000808188608083E0916203F09163038081DB
:101B600080688083E0916203F091630380818F7DC0
:101B700080836CEA71E080E593E00E94B70361EC3A
:101B800071E080E593E00E94B70364E670E080E0D6
:101B900090E00E94190A80912A0490912B04892BCD
:101BA00031F40E94350990932B0480932A0480918C
:101BB0001E04886080931E0482E0809325041092A6
:101BC000260480E48093270480E18093280480E544
:101BD0008093290480912A0490912B04DC01ED91DB
:101BE000FC910480F581E02D41E06091130409959A
:101BF000609114046F3F61F080912A0490912B044E
:101C0000DC01ED91FC910480F581E02D41E0099526
:101C100080912A0490912B04DC01ED91FC910480C9
:101C2000F581E02D41E0609115040995CFE0D4E005
:101C30009E012F50344080911E0484FD03C084E037
:101C400090E002C088E090E021962817390774F4EC
:101C500080912A0490912B04DC01ED91FC91048089
:101C6000F581E02D41E06E810995E2CF60E573ECEE
:101C700085E493E00E94540A80912A0490912B04F9
:101C8000DC01ED91FC910680F781E02D40E0609150
:101C90001304099580912A0490912B04DC01ED91A5
:101CA000FC910680F781E02D40E0609115040995D4
:101CB000609114046F3F61F080912A0490912B048D
:101CC000DC01ED91FC910680F781E02D40E0099563
:101CD00080912A0490912B04DC01ED91FC91048405
:101CE000F585E02D099580911E0484FD27C063E0F1
:101CF0008FE094E00E94C80164E971E185E493E01B
:101D00000E94540A63E08FE094E00E94C80164E9F5
:101D100071E185E493E00E94540A63E08FE094E06F
:101D20000E94C80166E970E085E493E00E94540ACD
:101D300062E08FE094E00E94C80119C080620E94B6
:101D4000130C64E971E185E493E00E94540A8091E8
:101D50001E0480620E94130C66E970E085E493E043
:101D60000E94540A80911E0480620E94130C80918C
:101D70001E0480620E94130C84E080931F048CE098
:101D80000E94130C0E942B0C82E08093200486E0BA
:101D90000E94130C08E111E0C0E0B8018C2F0E94F2
:101DA000340CCF5F085F1F4FC630B9F760E171E0B8
:101DB00085E00E94340C68E071E086E00E94340CFB
:101DC00060E071E087E00E94340C64E670E080E03F
:101DD00090E00E94190A0E942B0C60E082E00E94B1
:101DE000190C64EC71E08FE094E00E94CC0361E098
:101DF00089E00E94190C6AEC71E08FE094E00E9487
:101E0000CC0368EE73E080E090E00E94190A08E3DA
:101E100010E086E4782E94E8E92EF12C2CE7C22E0F
:101E2000D12C84E094E00E94FA02B8010E94DE11F5
:101E30005B01C62F89EF93E00E94FA02B8010E946D
:101E4000DE114B01D62F60ED71E080E593E00E943A
:101E5000CC038A2D0E94940C6DED71E080E593E037
:101E60000E94CC0388E80E94940C6EEE71E080E53D
:101E700093E00E94CC038CE00E94940C60E072E03E
:101E800080E593E00E94CC038CE70E94940C61EC07
:101E900071E080E593E00E94B70364E172E080E5C1
:101EA00093E00E94CC03882D0E94940C61E272E0C2
:101EB00080E593E00E94CC0381E90E94940C62E3E8
:101EC00072E080E593E00E94CC038DE00E94940CC8
:101ED00064E472E080E593E00E94CC0384E80E9411
:101EE000940C68E572E080E593E00E94B70361EC32
:101EF00071E080E593E00E94B70361EC71E080E55A
:101F000093E00E94B703C50199278339910518F022
:101F10001092C70204C0099728F47092C702BB242C
:101F2000B39408C0CC3020F0C4EFCA0DB12C02C06D
:101F3000B12CC0E0C40199278C39910518F010929A
:101F4000C60222C00A9718F47092C6021DC0DD3086
:101F500050F0D3EFD80DBB2009F48EC0C0E0D438C8
:101F600038F0D4E805C0BB2009F480C0C0E0D0E060
:101F700084E88D1B26E4829FC0011124B7010E94D2
:101F8000F211D62FA12C14C0B11072C0CC3708F0BA
:101F90006FC0AA24A3948CE78C1BB6E48B9FC0016E
:101FA0001124B6010E94F211C62FAA20C1F2D0E07E
:101FB0008091C7028C1305C08091C6028D1709F469
:101FC0004CC00E942B0C60E080E00E94190C66E07F
:101FD0008FE094E00E948C04BB20A1F08091C502A8
:101FE00091E0811190E09093C50281110FC060E0F3
:101FF00088E00E94190C69E772E08FE094E00E948B
:10200000CC0304C06C2F80E00E94510C61E080E0A2
:102010000E94190C67E08FE094E00E948C04AA20D3
:10202000A1F08091C40291E0811190E09093C402EC
:1020300081110FC061E088E00E94190C69E772E02D
:102040008FE094E00E94CC0304C06D2F81E00E94D9
:10205000510CC093C702D093C6026CEB72E080E0D3
:1020600090E00E94190A0E949101DBCED0E004C0EA
:10207000C0E0AA24A3949BCFCC3708F06FCFA12C4B
:102080008ACFCF92DF92EF92FF92CF938EE491E0CE
:10209000909346038093450386E080934B03109210
:1020A0004F0310924A031092490310924D0310926D
:1020B0004C0382E490E00E94CF13FC019C012E5B54
:1020C0003F4F1186108611821082178216823B962E
:1020D000E217F307B1F790934803809347031092F8
:1020E00053031092520388EE93E0A0E0B0E0809397
:1020F000540390935503A0935603B093570324E5DC
:1021000031E0309351032093500325EC30E03093BD
:102110005D0320935C0324EC30E030935F03209355
:102120005E0320EC30E0309361032093600321ECE8
:1021300030E0309363032093620322EC30E030936D
:1021400065032093640326EC30E03093670320930B
:1021500066031092690310926A0310926B03109247
:102160006C031092F0031092EF038093F1039093AD
:10217000F203A093F303B093F40386E691E0909307
:10218000EE038093ED03109212041092110484EA7E
:1021900091E09093100480930F048AE090E00E94F5
:1021A000CF13FC0188E791E0918380838DEE93E06B
:1021B0009383828387E28483168215828FEF8187DF
:1021C00091E097831086109213049093140492E088
:1021D00090931504809324041092230410922204F7
:1021E000309719F40E94350901C0CF0190932B0458
:1021F00080932A0428E22093210424E020931604EB
:1022000025E02093170426E02093180427E020936C
:10221000190410921A0410921B0410921C041092BC
:102220001D0410921E0423E0209324041092230422
:1022300010922204DC01ED91FC910480F581E02DE7
:1022400041E063E00995C0912404CF3F09F469C0DF
:1022500020912204309123042230310509F050C02E
:1022600061E08C2F0E94D909EC2FF0E0E255FF4F7E
:10227000E491E33011F150F4E130D1F0E230D9F5DE
:1022800084B5806284BD81E088BD4BC0E73009F130
:10229000E83041F1E43079F58091800080628093EC
:1022A000800081E090E090938B0080938A0039C099
:1022B00084B5806884BDE7BD34C0809180008068AB
:1022C0008093800081E090E0909389008093880063
:1022D00028C08091B00080688093B00081E0809336
:1022E000B3001FC08091B00080628093B00081E095
:1022F0008093B40016C060E08C2F0E94A60911C024
:1023000080912A0490912B0441E02130310509F499
:1023100040E0DC01ED91FC910680F781E02D6C2F0F
:1023200009951092060482E08093040484E080936F
:10233000050461E082E00E94D90960E08091050413
:102340000E94D90980E2C82E8EE4D82EE12CF12C0F
:10235000C0920B04D0920C04E0920D04F0920E0493
:102360001092FB0387E08093F90388E08093FA03DF
:1023700061E087E00E94D90960E08091FA030E9441
:10238000D909C0920004D0920104E0920204F092B4
:102390000304CF91FF90EF90DF90CF9008958EE4EB
:1023A00091E0909346038093450380914703909179
:1023B0004803009711F00C9467140895AA1BBB1BE7
:1023C00051E107C0AA1FBB1FA617B70710F0A61B35
:1023D000B70B881F991F5A95A9F780959095BC0156
:1023E000CD01089597FB072E16F4009407D077FDD2
:1023F00009D00E94DE1107FC05D03EF4909581952E
:102400009F4F0895709561957F4F0895A1E21A2E10
:10241000AA1BBB1BFD010DC0AA1FBB1FEE1FFF1F88
:10242000A217B307E407F50720F0A21BB30BE40BD8
:10243000F50B661F771F881F991F1A9469F760951F
:102440007095809590959B01AC01BD01CF010895D9
:10245000A29FB001B39FC001A39F700D811D1124E5
:10246000911DB29F700D811D1124911D08950E9430
:102470002812A59F900DB49F900DA49F800D911DD3
:1024800011240895EE0FFF1F0590F491E02D09949B
:102490000E94B01390F09F3748F4911116F40C94F9
:1024A000C91360E070E080E89FE3089526F01B16F2
:1024B000611D711D811D0C9443130C945E130E94C9
:1024C00073120C947D130E94761358F00E946F13C0
:1024D00040F029F45F3F29F00C943D1351110C9406
:1024E000C9130C946C130E948E1368F39923B1F3F3
:1024F000552391F3951B550BBB27AA27621773072A
:10250000840738F09F5F5F4F220F331F441FAA1FBD
:10251000A9F335D00E2E3AF0E0E832D09150504079
:10252000E695001CCAF72BD0FE2F29D0660F771F27
:10253000881FBB1F261737074807AB07B0E809F00D
:10254000BB0B802DBF01FF2793585F4F3AF09E3F92
:10255000510578F00C943D130C94C9135F3FE4F3DC
:10256000983ED4F3869577956795B795F7959F5FD5
:10257000C9F7880F911D9695879597F90895E1E021
:10258000660F771F881FBB1F621773078407BA0780
:1025900020F0621B730B840BBA0BEE1F88F7E095DB
:1025A00008950E94961388F09F5798F0B92F9927A5
:1025B000B751B0F0E1F0660F771F881F991F1AF02E
:1025C000BA95C9F714C0B13091F00E94C813B1E0B8
:1025D00008950C94C813672F782F8827B85F39F0B7
:1025E000B93FCCF3869577956795B395D9F73EF4C7
:1025F00090958095709561957F4F8F4F9F4F08956F
:10260000E89409C097FB3EF490958095709561958C
:102610007F4F8F4F9F4F9923A9F0F92F96E9BB2742
:102620009395F695879577956795B795F111F8CFBE
:10263000FAF4BB0F11F460FF1BC06F5F7F4F8F4F29
:102640009F4F16C0882311F096E911C0772321F01F
:102650009EE8872F762F05C0662371F096E8862FB7
:1026600070E060E02AF09A95660F771F881FDAF70E
:10267000880F9695879597F9089597F99F6780E851
:1026800070E060E00895882371F4772321F098507A
:10269000872B762F07C0662311F499270DC0905120
:1026A000862B70E060E02AF09A95660F771F881FEE
:1026B000DAF7880F9695879597F908959F3F31F03F
:1026C000915020F4879577956795B795880F911D60
:1026D0009695879597F908959FEF80EC08950024CB
:1026E0000A941616170618060906089500240A9477
:1026F00012161306140605060895092E0394000CFD
:1027000011F4882352F0BB0F40F4BF2B11F460FF8B
:1027100004C06F5F7F4F8F4F9F4F089557FD9058B4
:10272000440F551F59F05F3F71F04795880F97FB95
:10273000991F61F09F3F79F087950895121613064F
:102740001406551FF2CF4695F1DF08C0161617067E
:102750001806991FF1CF86957105610508940895B3
:102760000E949613A0F0BEE7B91788F4BB279F38E4
:1027700060F41616B11D672F782F8827985FF7CF62
:10278000869577956795B11D93959639C8F3089509
:10279000E894BB2766277727CB0197F908950F9315
:1027A0001F93CF93DF938230910510F482E090E085
:1027B000E0912E04F0912F0420E030E0A0E0B0E0A2
:1027C000309719F1408151810281138148175907CF
:1027D000C8F08417950769F4109731F012960C939E
:1027E000129713961C9327C000932E0410932F0466
:1027F00022C02115310519F04217530718F49A0128
:10280000BD01EF01DF01F801DBCF21153105F9F042
:10281000281B390B2430310580F48A819B81611596
:10282000710521F0FB019383828304C090932F04F0
:1028300080932E04FE01329644C0FE01E20FF31F86
:102840008193919322503109398328833AC0209192
:102850002C0430912D04232B41F42091460130911A
:10286000470130932D0420932C0420914401309192
:1028700045012115310541F42DB73EB7409148017E
:1028800050914901241B350BE0912C04F0912D044B
:10289000E217F307A0F42E1B3F0B2817390778F037
:1028A000AC014E5F5F4F2417350748F04E0F5F1F96
:1028B00050932D0440932C048193919302C0E0E047
:1028C000F0E0CF01DF91CF911F910F910895CF9349
:1028D000DF93009709F481C0FC01329713821282C2
:1028E000A0912E04B0912F04109781F420813181A2
:1028F000820F931F20912C0430912D042817390743
:1029000051F5F0932D04E0932C0467C0ED0120E015
:1029100030E0CE17DF0740F44A815B819E0141150C
:102920005105F1F0EA01F5CFD383C2834081518193
:10293000840F951FC817D90759F488819981840F8E
:10294000951F0296918380838A819B8193838283E2
:102950002115310529F4F0932F04E0932E043DC096
:10296000E901FB83EA8349915991C40FD51FEC1704
:10297000FD0761F480819181840F951F0296E90122
:1029800099838883828193819B838A83E0E0F0E04E
:1029900012968D919C911397009719F0FD01DC011F
:1029A000F7CF8D919C9111979D012E5F3F4F820F24
:1029B000931F20912C0430912D042817390769F4B6
:1029C000309729F410922F0410922E0402C0138223
:1029D0001282B0932D04A0932C04DF91CF9108951F
:1029E00081E090E0F8940C94F51410E0C2E6D0E099
:1029F00004C0FE010E9442122196C336D107C9F7D6
:042A0000F894FFCF78
:102A0400000E1F1F0208020000111F1F1F1F0000DD
:102A1400000000000000001F001010001010001F34
:102A2400001818001818001F001C1C001C1C001F94
:102A3400001E1E001E1E001F001F1F001F1F001F60
:102A4400530A530A00003004200000000000540A16
:102A54000000000022018F00B9006F01EA00C800E5
:102A6400DC000000000082025502B20229024D027D
:102A740039022A02000000003409C4084F062B065C
:102A840021064D09D40619061E0600000000780927
:102A9400C608150AD509A2098506FF017706690645
:102AA400000000008C048F00B202B1024D65617316
:102AB40075726557617465722072756E6E696E67A2
:102AC400000D0A005741544552004C4556454C00F0
:102AD4004D2044697374616E63653A20004D20484B
:102AE400656967687420546F74616C3A20004D20E6
:102AF4004865696768742053656E736F723A200085
:102B04004D20486569676874204F766572666C6FFE
:102B1400773A2000522044697374616E63653A20E9
:102B240000522048656967687420546F74616C3A78
:102B3400200052204865696768742053656E736F7E
:102B4400723A20005220486569676874204F7665A0
:102B540072666C6F773A20002D2D2D2D2D2D2D2D85
:102B64002D2D2D2D2D2D2D2D2D2D2D2D2D2D2D2D91
:0C2B74002D2D2D2D2D2D2D2D2D2D2D0066
:00000001FF
