:100000000C9463000C944E080C9427080C948B00FD
:100010000C948B000C948B000C948B000C948B0034
:100020000C948B000C948B000C948B000C948B0024
:100030000C948B000C948B000C948B000C948B0014
:100040000C94CC0B0C948B000C946F030C94490310
:100050000C948B000C948B000C948B000C948B00F4
:100060000C94E0040C948B000000000800020100D6
:100070000003040700000000000000000000000072
:10008000240027002A0001020408102040800102F9
:1000900004081020010204081020000000002500C0
:1000A00028002B0000000000230026002900040483
:1000B0000404040404040202020202020303030310
:1000C0000303C90EBA0E11241FBECFEFD8E0DEBF66
:1000D000CDBF11E0A0E0B1E0E2E1F7E202C005909F
:1000E0000D92A43DB107D9F723E0A4EDB1E001C022
:1000F0001D92AD39B207E1F710E0C2E6D0E004C0CE
:100100002197FE010E94C910C136D107C9F70E948C
:10011000160C0C947C130C94000008950895CF9253
:10012000DF92EF92FF920F931F93CF93DF936C01B7
:100130007A018B01C0E0D0E0CE15DF0581F0D80157
:100140006D918D01D601ED91FC910190F081E02D32
:10015000C6010995892B11F02196EECF7E01C701CA
:10016000DF91CF911F910F91FF90EF90DF90CF9093
:100170000895FC01538D448D252F30E0842F90E0AD
:10018000821B930B541710F0CF9608950197089592
:10019000FC01918D828D981761F0828DDF01A80F8F
:1001A000B11D5D968C91928D9F5F9F73928F90E0B1
:1001B00008958FEF9FEF0895FC01918D828D981720
:1001C00031F0828DE80FF11D858D90E008958FEF5D
:1001D0009FEF0895FC01918D228D892F90E0805C26
:1001E0009F4F821B91098F73992708958FE192E0A9
:1001F0000E94EA0021E0892B09F420E0822F089573
:10020000FC01848DDF01A80FB11DA35ABF4F2C91B3
:10021000848D90E001968F739927848FA689B78982
:100220002C93A089B1898C91837080648C93938D79
:10023000848D981306C00288F389E02D80818F7D1C
:1002400080830895EF92FF920F931F93CF93DF93D4
:10025000EC0181E0888F9B8D8C8D981305C0E88917
:10026000F989808185FD26C0F62E0B8D10E00F5F89
:100270001F4F0F731127E02E8C8DE8120CC00FB6A4
:1002800007FCFACFE889F989808185FFF5CFCE0197
:100290000E940001F1CF8B8DFE01E80FF11DE35AA2
:1002A000FF4FF0829FB7F8940B8FEA89FB8980811A
:1002B00080620AC09FB7F894EE89FF896083E8895D
:1002C000F98980818370806480839FBF81E090E0A2
:1002D000DF91CF911F910F91FF90EF900895CF93F1
:1002E000DF93EC01888D8823C9F0EA89FB8980813E
:1002F00085FD05C0A889B9898C9186FD0FC00FB610
:1003000007FCF5CF808185FFF2CFA889B9898C9150
:1003100085FFEDCFCE010E940001E7CFDF91CF91A5
:10032000089580E090E0892B29F00E94F600811169
:100330000C9400000895CF93DF93EC018B8D9C8D7E
:10034000DC01ED91FC910680F781E02D41E06E81AA
:1003500009958B8D9C8DDC01ED91FC910484F585D4
:10036000E02D09958B8D9C8DDC01ED91FC91068033
:10037000F781E02D40E06E8109958B8D9C8DDC012D
:10038000ED91FC910484F585E02DDF91CF910994E6
:10039000CF92DF92EF92FF920F931F93CF93DF9351
:1003A0008C016C0127E0C20ED11CC0E0D0E0E62E2B
:1003B000F12CD8015B968D919C915C97F60161912F
:1003C0006F01A7010C2E02C0559547950A94E2F7DC
:1003D0004170DC01ED91FC910680F781E02D0995DB
:1003E0002196C430D10529F7C801DF91CF911F9123
:1003F0000F91FF90EF90DF90CF900C949B0181E0E4
:10040000089585ED8093BC008091BC0084FDFCCFF5
:1004100010926A0308954091F801262F30E0240FCE
:10042000311D21323105DCF420916A032430C9F4F6
:10043000FC0180E090E0861758F43091F80121919A
:10044000DC01A852BE4FA30FB11D2C930196F3CF30
:100450008091F801680F6093F80180E0089581E0D1
:10046000089582E008950895E0916C0380916B03F4
:10047000E81730F4F0E0E359FC4F808190E00895F4
:100480008FEF9FEF089590916C0380916B03981705
:1004900050F4E92FF0E0E359FC4F208130E09F5FFA
:1004A00090936C0302C02FEF3FEFC9010895809134
:1004B0006B0390E020916C03821B91090895CF9209
:1004C000DF92EF92FF920F931F93CF93DF937C0104
:1004D000CB018A0120912103222389F0EB016B01DA
:1004E000C40ED51ECC15DD0569F06991D701ED91DB
:1004F000FC910190F081E02DC7010995F3CF642FA5
:100500000E940B02C801DF91CF911F910F91FF90C4
:10051000EF90DF90CF900895CF93DF931F92CDB7E8
:10052000DEB76983209121032223D1F02091430378
:10053000203240F021E030E0FC013383228380E070
:1005400090E015C080912203E82FF0E0ED5DFC4FB4
:10055000998190838F5F809322038093430305C02A
:1005600061E0CE0101960E940B0281E090E00F90C5
:10057000DF91CF910895089580E090E008950E9462
:1005800077136115710579F0FB0101900020E9F7FF
:100590003197AF01461B570BDC01ED91FC910280B6
:1005A000F381E02D099480E090E008950F931F936C
:1005B000CF93DF93EC018A81882321F061E0888169
:1005C0000E94BC0A60E088810E94890A83E090E072
:1005D0000197F1F761E088810E94890A83E290E047
:1005E0000197F1F760E088810E94890A8A81882357
:1005F00021F060E088810E94BC0A0E94FC0A6B83A3
:100600007C838D839E8389810E945C0A892BA9F457
:100610000E94FC0A0B811C812D813E81DC01CB01F3
:10062000801B910BA20BB30B0F81188529853A858E
:10063000081719072A073B0730F70E94FC0A6B834B
:100640007C838D839E8389810E945C0A892BA9F01B
:100650000E94FC0A0B811C812D813E81DC01CB01B3
:10066000801B910BA20BB30B0F81188529853A854E
:10067000081719072A073B0730F70E94FC0A2B814D
:100680003C81CB01821B930BDF91CF911F910F9186
:1006900008951F920F920FB60F9211242F933F933C
:1006A0004F935F936F937F938F939F93AF93BF937A
:1006B000EF93FF938FE192E00E940001FF91EF9191
:1006C000BF91AF919F918F917F916F915F914F916A
:1006D0003F912F910F900FBE0F901F9018951F9272
:1006E0000F920FB60F9211242F938F939F93EF9336
:1006F000FF93E0912F02F09130028081E09135026A
:10070000F091360282FD12C09081809138028F5F95
:100710008F7320913902821751F0E0913802F0E096
:10072000E15EFD4F958F8093380201C08081FF917B
:10073000EF919F918F912F910F900FBE0F901F906F
:100740001895CF92DF92EF92FF920F931F93CF9362
:10075000DF93EC01F62E8B8D9C8DDC01ED91FC91ED
:100760000680F781E02D6C8109956D816F3F51F016
:100770008B8D9C8DDC01ED91FC910680F781E02D45
:1007800040E009958F850F2D10E084FF25C06E0194
:10079000B7E0CB0ED11CE12CF12C8B8D9C8DF6019A
:1007A00061916F01A8010E2C02C0559547950A94DE
:1007B000E2F74170DC01ED91FC910680F781E02DBC
:1007C0000995BFEFEB1AFB0AE8E0EE16F10429F7F2
:1007D000CE010E949B010DC0B80184E0759567951C
:1007E0008A95E1F7CE010E94C8016F2DCE010E94CB
:1007F000C8016A8970E086E193E0DF91CF911F9193
:100800000F91FF90EF90DF90CF900C940F0641E096
:100810000E94A10381E090E00895EF92FF920F9370
:100820001F93CF93DF9383ED92E00E94D60228E3DB
:10083000E22EF12CB7010E9487108B01C62F88ECA5
:1008400092E00E94D602B7010E948710262FC801AD
:1008500099278339910518F01092D70105C009979F
:1008600028F486E48093D70111E008C00C3020F012
:10087000C4EFC00F10E002C010E0C0E0CB01992728
:100880008C39910518F01092D6018AC00C9720F48B
:1008900086E48093D60184C02F3048F021EF260FE4
:1008A0001123B9F0C0E0223830F022E804C011234F
:1008B00079F0C0E020E082E8821B26E4829FC0013C
:1008C000112462E870E00E949B10D62F00E012C055
:1008D00020E0CC3738F700E08CE78C1B36E4839FB0
:1008E000C00111246CE770E00E949B10C62F00230A
:1008F000D1F2D0E08091D701C81305C08091D60114
:10090000D81709F456C00E94010860E080E00E94F8
:10091000AC0766E08EED92E00E9407041123A1F07F
:100920008091D50191E0811190E09093D5018111E2
:100930000FC060E088E00E94AC0760ED71E08EEDD2
:1009400092E00E94C10204C06C2F80E00E94BE07AA
:1009500061E080E00E94AC0767E08EED92E00E94CB
:1009600007040023A1F08091D40191E0811190E06F
:100970009093D40181110FC061E088E00E94AC0720
:1009800060ED71E08EED92E00E94C10204C06D2F17
:1009900081E00E94BE07C093D701D093D60109C061
:1009A000112319F001E0C0E0A4CFCC37D8F701E063
:1009B00093CFDF91CF911F910F91FF90EF9008950A
:1009C0001F920F920FB60F9211242F933F934F93C4
:1009D0005F936F937F938F939F93AF93BF93EF93A7
:1009E000FF938091B900887F803609F49CC068F538
:1009F000883209F45BC090F4803109F454C038F4B3
:100A0000882309F4F6C0883009F44DC0F6C0883157
:100A100009F44CC0803209F45DC0EFC0803409F4A1
:100A200068C048F4803309F455C0883309F0E5C044
:100A300080936803D8C0803509F44FC0883509F425
:100A40005DC0883409F0D9C0D6C0883909F4C7C060
:100A5000A8F4883709F467C038F4883609F463C00D
:100A6000803709F460C0C9C0883809F4B8C080393B
:100A700009F45FC0803809F0C0C05BC0803B09F456
:100A800086C038F4803A09F466C0883A09F47FC019
:100A9000B4C0803C09F4A7C0883C09F4A4C0883BDA
:100AA00009F48AC0AAC08091650310C090916703C1
:100AB00080916603981770F5E091670381E08E0FCF
:100AC00080936703F0E0EC5BFC4F80818093BB0078
:100AD00085EC86C0809368038EC0E091670381E057
:100AE0008E0F809367038091BB00F0E0EC5BFC4FBE
:100AF000808390916703809166036EC0E0916703E5
:100B000081E08E0F809367038091BB00F0E0EC5B87
:100B1000FC4F80838091690381116DC081E08093D7
:100B2000640384EA61C083E080936A0310921A022E
:100B3000CFCF80911A02803208F051C0E0911A02A2
:100B400081E08E0F80931A028091BB00F0E0E650A6
:100B5000FE4F8083BDCF85EC8093BC0010926A036A
:100B600080911A02803230F4E0911A02F0E0E650EF
:100B7000FE4F108260911A0270E0E0911B02F0912A
:100B80001C028AEF91E0099510921A0236C084E0A7
:100B900080936A031092F9011092F801E0911D020E
:100BA000F0911E0209958091F801811105C081E044
:100BB0008093F8011092D801E091F90181E08E0F45
:100BC0008093F901F0E0E852FE4F80818093BB00F2
:100BD0009091F9018091F801981708F479CF85E890
:100BE0008093BC000AC085EC8093BC0010926A031D
:100BF00004C0109268030E940102FF91EF91BF911F
:100C0000AF919F918F917F916F915F914F913F91A4
:100C10002F910F900FBE0F901F90189508954F922F
:100C20005F926F927F928F929F92AF92BF92CF927C
:100C3000DF92EF92FF920F931F93CF93DF9300D039
:100C400000D000D0CDB7DEB76C017A8369830E94F3
:100C5000FC0A2B013C0149815A819A0140E050E095
:100C600029833A834B835C83D6011A968C911A9719
:100C7000882359F01A961C921A9719968C911997F5
:100C80001796ED91FC9118970995F6010480F5816E
:100C9000E02DFE83ED832D813E812115310529F163
:100CA000D9010D911C9117FF20C013FD1EC046C035
:100CB0008115904109F047C10E945B0B4B015C011B
:100CC0009801A8EEB3E00E94AF10ED81FE81028191
:100CD000138124813581801A910AA20AB30A8616EB
:100CE0009706A806B90608F048C00E94FC0ADC0175
:100CF000CB0184199509A609B70929813A814B814D
:100D00005C8182179307A407B50708F4ADCF269638
:100D10000FB6F894DEBF0FBECDBFDF91CF911F910C
:100D20000F91FF90EF90DF90CF90BF90AF909F908A
:100D30008F907F906F905F904F900895C8018827A3
:100D400090731770009709F0B3CF0E94FC0AAD8131
:100D5000BE8112968D909D90AD90BC901597DC0150
:100D6000CB0188199909AA09BB0920E030E0801756
:100D70009107A207B30708F4B8CFF601A481B581A3
:100D80002D813E812A173B0761F4D90118968D9178
:100D90009C9119979583848319961C921E9218979B
:100DA0001AC01896ED91FC9119973097A1F02D81FA
:100DB0003E812E173F0751F4F901808591851996E0
:100DC0009C938E9318971186108605C0DF010084CE
:100DD000F185E02DEACFAD81BE8116968D919C9173
:100DE0001797009709F449C02D913C9111971A96D5
:100DF0004C911A9736FF28C038602D933C934423BA
:100E000041F0DC01ED91FC910190F081E02D09951C
:100E100002C0FC010995AD81BE818D919C9188270E
:100E20009073892B19F40E94FC0A02C00E945B0B8C
:100E3000ED81FE81628373838483958380819181B8
:100E4000977F9183808319C0AD81BE8111961C92DA
:100E50001E9217961C921E92169719961C921E921D
:100E60001897442341F0DC01ED91FC910190F08151
:100E7000E02D099502C0FC010995AD81BE818D91DF
:100E80009C91119796FF56C0F60184819581009739
:100E900039F4B583A48319961C921E9218974AC000
:100EA0000E94670B4B015C018D819E810E94670B44
:100EB000D60114960D911C911597681579058A0530
:100EC0009B0548F4ED81FE81118700871596FC9300
:100ED000EE9314972FC0D8011896ED90FC901997B7
:100EE000E114F104F1F0C7010E94670B4B015C01B2
:100EF0008D819E810E94670B681579058A059B0587
:100F000058F42D813E81F80131872087D901199647
:100F1000FC92EE9218970EC08701F701E084F184ED
:100F2000DFCFED81FE81D8011996FC93EE931897DF
:100F300011861086AD81BE8118960D90BC91A02DB2
:100F4000BE83AD83A8CE0E945B0B01CF40E0682F2B
:100F50008EED92E00C94A103643008F063E0909170
:100F6000F402691710F06FEF690FE62FF0E0E2521C
:100F7000FD4F9789890F80680C94A607FF920F9305
:100F80001F93CF93DF93C82F162F70E080E090E07F
:100F90000E94871120E030E040EA50E40E94E61011
:100FA0000E94CF100E945811062F82E00E94A607CF
:100FB00060ED77E086E193E00E940F066C2F82E0FF
:100FC0000E94AC07DFEFD10FC1E084E0F82EF10EF4
:100FD0000C1710F465E007C08F2D8D1B811710F4DE
:100FE00064E001C06D2F8EED92E00E940704CF5F98
:100FF000D550CF3069F7DF91CF911F910F91FF90BE
:10100000089581E00E94A60760ED77E086E193E015
:101010000C940F060F931F93CF93DF938B01877070
:1010200028E0829FC001112480640E94A607E80185
:10103000085F1F4F69918EED92E00E940704C01770
:10104000D107C1F7DF91CF911F910F9108951F92A2
:101050000F920FB60F9211242F933F934F935F93EC
:101060006F937F938F939F93AF93BF93EF93FF9370
:10107000E0914201F09143010995FF91EF91BF91F9
:10108000AF919F918F917F916F915F914F913F9120
:101090002F910F900FBE0F901F9018951F920F92D7
:1010A0000FB60F9211242F933F934F935F936F933B
:1010B0007F938F939F93AF93BF93EF93FF93E091B1
:1010C0004001F09141010995FF91EF91BF91AF91DE
:1010D0009F918F917F916F915F914F913F912F9150
:1010E0000F900FBE0F901F901895FC01468321E0D2
:1010F00027830895FC0185810895FC01858190E096
:1011000002C0959587956A95E2F781700895FC0174
:10111000362F2681442371F081E090E0A0E0B0E01A
:1011200004C0880F991FAA1FBB1F6A95D2F7822B94
:1011300086830EC041E050E060E070E004C0440FE0
:10114000551F661F771F3A95D2F740954223468375
:1011500081E087830895CF93DF93EC014D7FE88191
:10116000F981411107C081E088870680F781E02D71
:1011700041E004C00680F781E02D40E0CE010995F2
:1011800081E08F83DF91CF910895E62FF0E0E25563
:10119000FF4FE491F0E0EE0FFF1FEC55FF4FA591DC
:1011A000B4918C910895E62FF0E0E255FF4FE49161
:1011B000F0E0EE0FFF1FE656FF4FA591B4914C9360
:1011C0000895623021F0633009F581E001C080E0CC
:1011D000E82FF0E0EE0FFF1FE05CFE4F51834083ED
:1011E000813041F0809169008C7F282B2093690029
:1011F000E89A089580916900837F94E0299F900187
:101200001124282B20936900E99A089508958330CA
:1012100081F028F4813099F08230A1F00895873070
:10122000A9F08830B9F08430D1F4809180008F7DAE
:1012300003C0809180008F7780938000089584B5EB
:101240008F7702C084B58F7D84BD08958091B000F2
:101250008F7703C08091B0008F7D8093B000089598
:101260001F93CF93DF93EC018F81882309F475C01E
:101270001F828C8191E090932103809398031092B8
:101280002203109243038A819B81DC01ED91FC9142
:101290000190F081E02D6E81099530914303313248
:1012A00008F04BC080916A038111FCCF90919803A4
:1012B00022E020936A0321E0209369032FEF20931B
:1012C00068031092670330936603A3E2B3E0E4E49B
:1012D000F3E020E0321721F04D9141932F5FFACFD8
:1012E0001092650320916503990F922B90936503EB
:1012F00090916403913061F41092640390916503BE
:101300009093BB009091BC0093FDF8CF95EC01C089
:1013100095EE9093BC0090916A039230E1F3909126
:1013200068039F3F79F080916803803241F080919B
:101330006803803331F084E005C081E003C082E0BF
:1013400001C083E010922203109243031092210304
:1013500011E0882319F010E001C011E0888588238E
:1013600009F45CC08C8190916A039111FCCF91E0EB
:1013700090936A03909369032FEF20936803109270
:101380006703109266039093650390916503880F3D
:10139000892B8093650380916403813061F41092FE
:1013A0006403809165038093BB008091BC0083FD42
:1013B000F8CF85EC01C085EE8093BC0080916A0374
:1013C0008130E1F380916703811103C0909167033D
:1013D00001C091E0A4E4B3E0EDE6F3E080E089171A
:1013E00021F02D9121938F5FFACF10926C0380939F
:1013F0006B038A819B81DC01ED91FC910084F18576
:10140000E02D0995892B51F08A819B81DC01ED91BA
:10141000FC910284F385E02D09958D83812FDF9166
:10142000CF911F9108950C94EE120C94EE12089532
:101430008091960390919703892B69F482E090E064
:101440000E94561228E831E0FC01318320839093FA
:101450009703809396038091960390919703089544
:101460000F931F93CF93DF93DC0119962C912F3F9D
:10147000E9F08A01EC010E94180ADC01ED91FC916F
:101480000480F581E02D42E0698509950E94180AE3
:10149000DC01ED91FC910284F385E02D22E0A801AE
:1014A0006985DF91CF911F910F910994DF91CF91C1
:1014B0001F910F9108950895CF93DF93282F30E067
:1014C000F901E859FF4F8491F901EA57FF4FD49190
:1014D000F901E255FF4FC491CC2391F081110E9494
:1014E0000709EC2FF0E0EE0FFF1FEC55FF4FA59121
:1014F000B491EC91ED2381E090E021F480E002C012
:1015000080E090E0DF91CF910895862F0E945C0AE1
:1015100008951F93CF93DF93282F30E0F901E85906
:10152000FF4F8491F901EA57FF4FD491F901E25539
:10153000FF4FC491CC23C1F0162F81110E940709DF
:10154000EC2FF0E0EE0FFF1FE656FF4FA591B49190
:101550009FB7F894111104C08C91D095D82302C084
:10156000EC91DE2BDC939FBFDF91CF911F9108950B
:10157000862F642F0C94890ACF93DF9390E0FC01AF
:10158000EA57FF4F2491FC01E255FF4F84918823D5
:1015900061F190E0880F991FFC01E458FF4FC5915D
:1015A000D491FC01E656FF4FA591B491611109C099
:1015B0009FB7F8948881209582238883EC912E230D
:1015C0000BC0623061F49FB7F8948881322F309558
:1015D00083238883EC912E2B2C939FBF06C08FB75B
:1015E000F894E8812E2B28838FBFDF91CF91089547
:1015F000862F642F0C94BC0A3FB7F8948091920315
:1016000090919303A0919403B091950326B5A89B64
:1016100005C02F3F19F00196A11DB11D3FBFBA2F84
:10162000A92F982F8827820F911DA11DB11DBC01E4
:10163000CD0142E0660F771F881F991F4A95D1F7A9
:1016400008958F929F92AF92BF92CF92DF92EF92C6
:10165000FF926B017C010E94FC0A4B015C01C114EA
:10166000D104E104F104F1F00E94FC0ADC01CB0199
:1016700088199909AA09BB09883E9340A105B105BB
:1016800070F321E0C21AD108E108F10888EE880E53
:1016900083E0981EA11CB11CC114D104E104F10423
:1016A00019F7DDCFFF90EF90DF90CF90BF90AF9014
:1016B0009F908F9008952FB7F89460918E0370914A
:1016C0008F0380919003909191032FBF0895CF9243
:1016D000DF92EF92FF920F931F93CF93DF938C01D2
:1016E000FC0160817181CB0188279073EB01D77079
:1016F000009701F50E94FC0AF80102811381248100
:1017000035816B017C01C01AD10AE20AF30ACE01CD
:10171000A0E0B0E08C159D05AE05BF0524F460E0A7
:1017200070E0CB0130C0BC01CD016C197D098E0980
:101730009F0929C06E01E12CF12C8115904139F4EB
:101740009E01A8EEB3E00E94AF106B017C010E94E5
:101750005B0BF8010281138124813581DC01CB010F
:10176000801B910BA20BB30BC816D906EA06FB0629
:10177000B0F2A7019601281B390B4A0B5B0BA8EEB0
:10178000B3E00E94BE10DF91CF911F910F91FF90A7
:10179000EF90DF90CF9008951F920F920FB60F92A7
:1017A00011242F933F938F939F93AF93BF93809177
:1017B0008E0390918F03A0919003B091910330918B
:1017C0008D0323E0230F2D3720F40196A11DB11DB9
:1017D00005C026E8230F0296A11DB11D20938D039D
:1017E00080938E0390938F03A0939003B093910303
:1017F0008091920390919303A0919403B0919503EB
:101800000196A11DB11D8093920390939303A09321
:101810009403B0939503BF91AF919F918F913F91A6
:101820002F910F900FBE0F901F901895789484B54C
:10183000826084BD84B5816084BD85B5826085BDCC
:1018400085B5816085BD80916E00816080936E005A
:10185000109281008091810082608093810080914C
:1018600081008160809381008091800081608093FD
:1018700080008091B10084608093B1008091B000BD
:1018800081608093B00080917A00846080937A00B8
:1018900080917A00826080937A0080917A008160E2
:1018A00080937A0080917A00806880937A00109209
:1018B000C10010926C0310926B03109222031092DD
:1018C000430310926A0381E08093690310926403DA
:1018D00061E082E10E94890A61E083E10E94890A55
:1018E0008091B9008E7F8093B9008091B9008D7F7F
:1018F0008093B90088E48093B80085E48093BC00AD
:101900008DE890E090931E0280931D028EE890E097
:1019100090931C0280931B02E0912F02F091300201
:1019200082E08083E0912B02F0912C021082E09102
:101930002D02F0912E0280E1808310923702E09117
:101940003302F091340286E08083E0913102F0911D
:101950003202808180618083E0913102F091320215
:10196000808188608083E0913102F0913202808131
:1019700080688083E0913102F091320280818F7D16
:1019800080836CEA71E08FE192E00E94C10261EC19
:1019900071E08FE192E00E94C10264E670E080E0B5
:1019A00090E00E94210B8091F9029091FA02892B1C
:1019B00031F40E94180A9093FA028093F902809100
:1019C000ED0288608093ED0282E08093F402109231
:1019D000F50280E48093F60280E18093F70280E5CF
:1019E0008093F8028091F9029091FA02DC01ED9166
:1019F000FC910480F581E02D41E06091E2020995BF
:101A00006091E3026F3F61F08091F9029091FA02D8
:101A1000DC01ED91FC910480F581E02D41E0099518
:101A20008091F9029091FA02DC01ED91FC91048021
:101A3000F581E02D41E06091E4020995CEEDD2E020
:101A40009E012E5D32408091ED0284FD03C084E052
:101A500090E002C088E090E021962817390774F4DE
:101A60008091F9029091FA02DC01ED91FC910480E1
:101A7000F581E02D41E06E810995E2CF60E573ECE0
:101A800086E193E00E940F068091F9029091FA029C
:101A9000DC01ED91FC910680F781E02D40E0609142
:101AA000E20209958091F9029091FA02DC01ED9130
:101AB000FC910680F781E02D40E06091E4020995F9
:101AC0006091E3026F3F61F08091F9029091FA0218
:101AD000DC01ED91FC910680F781E02D40E0099555
:101AE0008091F9029091FA02DC01ED91FC9104845D
:101AF000F585E02D09958091ED0284FD27C063E016
:101B00008EED92E00E94C80164E971E186E193E004
:101B10000E940F0663E08EED92E00E94C80164E926
:101B200071E186E193E00E940F0663E08EED92E0A2
:101B30000E94C80166E970E086E193E00E940F060A
:101B400062E08EED92E00E94C80119C080620E949E
:101B5000A60764E971E186E193E00E940F06809197
:101B6000ED0280620E94A60766E970E086E193E0DC
:101B70000E940F068091ED0280620E94A60780916C
:101B8000ED0280620E94A60784E08093EE028CE062
:101B90000E94A6070E94010882E08093EF0286E07F
:101BA0000E94A60708E111E0C0E0B8018C2F0E9456
:101BB0000A08CF5F085F1F4FC630B9F760E171E0D8
:101BC00085E00E940A0868E071E086E00E940A0849
:101BD00060E071E087E00E940A0864E670E080E05F
:101BE00090E00E94210B0E94010860E082E00E94C8
:101BF000AC0764EC71E08EED92E00E94C10261E0FE
:101C000089E00E94AC076AEC71E08EED92E00E94E0
:101C1000C10268EE73E080E090E00E94210B8091A9
:101C20000C0390910D03892B21F180910403909175
:101C30000503019719F40E945B0B02C00E94FC0A85
:101C400060930E0370930F0380931003909311031E
:101C500081E08093FB02109206031092070310921A
:101C600008031092090381E090E090930B038093A6
:101C70000A038091FB02882309F479C08091040350
:101C800090910503019709F50E945B0B00910E03EB
:101C900010910F032091100330911103DC01CB014F
:101CA000801B910BA20BB30B0091FC021091FD0263
:101CB0002091FE023091FF0280179107A207B3071F
:101CC00008F455C00E945B0B1FC00E94FC0A0091E3
:101CD0000E0310910F032091100330911103DC01CA
:101CE000CB01801B910BA20BB30B0091FC02109156
:101CF000FD022091FE023091FF0280179107A2079A
:101D0000B307A8F10E94FC0A60930E0370930F03BF
:101D10008093100390931103809106039091070321
:101D2000A0910803B0910903409100035091010371
:101D30006091020370910303481B590B6A0B7B0BE4
:101D4000413051056105710511F41092FB020196B5
:101D5000A11DB11D8093060390930703A093080370
:101D6000B0930903E0910C03F0910D0309950E94D3
:101D700091017FCF8AEA91E0909317038093160335
:101D80008091180390911903009711F00C94EE12B2
:101D90000895CF92DF92EF92FF92CF938AEA91E07B
:101DA000909317038093160386E080931C03109290
:101DB000200310921B0310921A0310921E0310921C
:101DC0001D0382E490E00E945612FC019C012E5BF0
:101DD0003F4F1186108611821082178216823B9621
:101DE000E217F307B1F79093190380931803109249
:101DF00022021092210288EE93E0A0E0B0E08093EE
:101E0000230290932402A0932502B09326022EE48D
:101E100031E03093200220931F0225EC30E0309314
:101E20002C0220932B0224EC30E030932E022093DE
:101E30002D0220EC30E03093300220932F0221EC71
:101E400030E0309332022093310222EC30E03093C4
:101E500034022093330226EC30E030933602209394
:101E60003502109238021092390210923A02109202
:101E70003B021092BF021092BE028093C002909368
:101E8000C102A093C202B093C30280E691E0909396
:101E9000BD028093BC021092E1021092E0028EE932
:101EA00091E09093DF028093DE028AE090E00E944E
:101EB0005612FC0182E791E0918380838CEB92E0E3
:101EC0009383828387E28483168215828FEF8187D2
:101ED00091E0978310861092E2029093E30292E0E1
:101EE0009093E4028093F3021092F2021092F102B6
:101EF000309719F40E94180A01C0CF019093FA029A
:101F00008093F90228E22093F00224E02093E50276
:101F100025E02093E60226E02093E70227E02093C5
:101F2000E8021092E9021092EA021092EB0210927B
:101F3000EC021092ED0223E02093F3021092F202E1
:101F40001092F102DC01ED91FC910480F581E02D0D
:101F500041E063E00995C091F302CF3F09F469C005
:101F60002091F1023091F2022230310509F050C087
:101F700061E08C2F0E94BC0AEC2FF0E0E859FF4F83
:101F8000E491E33011F150F4E130D1F0E230D9F5D1
:101F900084B5806284BD81E088BD4BC0E73009F123
:101FA000E83041F1E43079F58091800080628093DF
:101FB000800081E090E090938B0080938A0039C08C
:101FC00084B5806884BDE7BD34C08091800080689E
:101FD0008093800081E090E0909389008093880056
:101FE00028C08091B00080688093B00081E0809329
:101FF000B3001FC08091B00080628093B00081E088
:102000008093B40016C060E08C2F0E94890A11C032
:102010008091F9029091FA0241E02130310509F4F2
:1020200040E0DC01ED91FC910680F781E02D6C2F02
:102030000995109205031092040380E69EEAAAE037
:10204000B0E08093FC029093FD02A093FE02B09357
:10205000FF021092000310920103109202031092EB
:1020600003038DE094E090930D0380930C03109292
:10207000FB0210920E0310920F03109210031092A5
:102080001103109206031092070310920803109296
:1020900009031092D50282E08093D30284E08093FA
:1020A000D40261E082E00E94BC0A60E08091D40228
:1020B0000E94BC0A80E2C82E8EE4D82EE12CF12CBE
:1020C000C092DA02D092DB02E092DC02F092DD02F2
:1020D0001092CA0287E08093C80288E08093C90208
:1020E00061E087E00E94BC0A60E08091C9020E9422
:1020F000BC0AC092CF02D092D002E092D102F092FC
:10210000D202CF91FF90EF90DF90CF900895AA1B5D
:10211000BB1B51E107C0AA1FBB1FA617B70710F0D2
:10212000A61BB70B881F991F5A95A9F78095909504
:10213000BC01CD01089597FB072E16F4009407D03B
:1021400077FD09D00E94871007FC05D03EF49095DA
:1021500081959F4F0895709561957F4F0895A29F37
:10216000B001B39FC001A39F700D811D1124911D6B
:10217000B29F700D811D1124911D08950E94AF1012
:10218000A59F900DB49F900DA49F800D911D1124CB
:102190000895EE0FFF1F0590F491E02D09940E9421
:1021A000371290F09F3748F4911116F40C945012A6
:1021B00060E070E080E89FE3089526F01B16611D43
:1021C000711D811D0C94CA110C94E5110E94FA1026
:1021D0000C9404120E94FD1158F00E94F61140F078
:1021E00029F45F3F29F00C94C41151110C94501242
:1021F0000C94F3110E94151268F39923B1F355233F
:1022000091F3951B550BBB27AA2762177307840709
:1022100038F09F5F5F4F220F331F441FAA1FA9F39F
:1022200035D00E2E3AF0E0E832D091505040E6958D
:10223000001CCAF72BD0FE2F29D0660F771F881FEE
:10224000BB1F261737074807AB07B0E809F0BB0BE1
:10225000802DBF01FF2793585F4F3AF09E3F5105F5
:1022600078F00C94C4110C9450125F3FE4F3983E44
:10227000D4F3869577956795B795F7959F5FC9F7DE
:10228000880F911D9695879597F90895E1E0660F5F
:10229000771F881FBB1F621773078407BA0720F0D8
:1022A000621B730B840BBA0BEE1F88F7E095089541
:1022B0000E941D1288F09F5798F0B92F9927B751A7
:1022C000B0F0E1F0660F771F881F991F1AF0BA95DA
:1022D000C9F714C0B13091F00E944F12B1E00895D7
:1022E0000C944F12672F782F8827B85F39F0B93FC9
:1022F000CCF3869577956795B395D9F73EF490958D
:102300008095709561957F4F8F4F9F4F0895E8940A
:1023100009C097FB3EF490958095709561957F4F2D
:102320008F4F9F4F9923A9F0F92F96E9BB279395DB
:10233000F695879577956795B795F111F8CFFAF4EB
:10234000BB0F11F460FF1BC06F5F7F4F8F4F9F4F1C
:1023500016C0882311F096E911C0772321F09EE87A
:10236000872F762F05C0662371F096E8862F70E0E0
:1023700060E02AF09A95660F771F881FDAF7880FBA
:102380009695879597F9089597F99F6780E870E08B
:1023900060E00895882371F4772321F09850872B0B
:1023A000762F07C0662311F499270DC09051862B14
:1023B00070E060E02AF09A95660F771F881FDAF7C1
:1023C000880F9695879597F908959F3F31F0915022
:1023D00020F4879577956795B795880F911D969509
:1023E000879597F908959FEF80EC089500240A944B
:1023F0001616170618060906089500240A941216E0
:102400001306140605060895092E0394000C11F412
:10241000882352F0BB0F40F4BF2B11F460FF04C0BF
:102420006F5F7F4F8F4F9F4F089557FD9058440F18
:10243000551F59F05F3F71F04795880F97FB991F23
:1024400061F09F3F79F087950895121613061406E0
:10245000551FF2CF4695F1DF08C01616170618066D
:10246000991FF1CF869571056105089408950E9422
:102470001D12A0F0BEE7B91788F4BB279F3860F49F
:102480001616B11D672F782F8827985FF7CF86958E
:1024900077956795B11D93959639C8F30895E8949B
:1024A000BB2766277727CB0197F908950F931F93D2
:1024B000CF93DF938230910510F482E090E0E091B9
:1024C0009B03F0919C0320E030E0A0E0B0E0309767
:1024D00019F1408151810281138148175907C8F0D1
:1024E0008417950769F4109731F012960C931297A0
:1024F00013961C9327C000939B0310939C0322C048
:102500002115310519F04217530718F49A01BD013E
:10251000EF01DF01F801DBCF21153105F9F0281BB0
:10252000390B2430310580F48A819B816115710556
:1025300021F0FB019383828304C090939C038093DA
:102540009B03FE01329644C0FE01E20FF31F81930C
:10255000919322503109398328833AC020919903FD
:1025600030919A03232B41F4209146013091470189
:1025700030939A03209399032091440130914501AF
:102580002115310541F42DB73EB7409148015091D6
:102590004901241B350BE0919903F0919A03E2174E
:1025A000F307A0F42E1B3F0B2817390778F0AC0176
:1025B0004E5F5F4F2417350748F04E0F5F1F509353
:1025C0009A03409399038193919302C0E0E0F0E075
:1025D000CF01DF91CF911F910F910895CF93DF939A
:1025E000009709F481C0FC01329713821282A091F6
:1025F0009B03B0919C03109781F420813181820F5D
:10260000931F2091990330919A032817390751F5A8
:10261000F0939A03E093990367C0ED0120E030E066
:10262000CE17DF0740F44A815B819E0141155105B9
:10263000F1F0EA01F5CFD383C28340815181840F49
:10264000951FC817D90759F488819981840F951F60
:102650000296918380838A819B8193838283211553
:10266000310529F4F0939C03E0939B033DC0E901FD
:10267000FB83EA8349915991C40FD51FEC17FD07DD
:1026800061F480819181840F951F0296E9019983FD
:102690008883828193819B838A83E0E0F0E01296B5
:1026A0008D919C911397009719F0FD01DC01F7CFF4
:1026B0008D919C9111979D012E5F3F4F820F931F2B
:1026C0002091990330919A032817390769F43097BC
:1026D00029F410929C0310929B0302C01382128271
:1026E000B0939A03A0939903DF91CF91089581E06D
:1026F00090E0F8940C947C1310E0C2E6D0E004C0A3
:10270000FE010E94C9102196C336D107C9F7F8947B
:02271000FFCFF9
:10271200000E1F1F0208020000111F1F1F1F0000D2
:10272200000000000000001F001010001010001F29
:10273200001818001818001F001C1C001C1C001F89
:10274200001E1E001E1E001F001F1F001F1F001F55
:102752000E060E0600009D0320000000000022016C
:102762008F00B9006F01EA00C800DC000000000021
:102772008C025F02BC0233025702430234020000A1
:102782000000170A130AAB0887087D08300A3009CF
:1027920075087A08000000005B0A150AF80AB80AF0
:1027A200850AE108FF01D308C508000000000704FC
:1027B2008F00BC02BB02000000000F064D65617372
:1027C20075726557617465722072756E6E696E6797
:1027D200000D0A005741544552004C4556454C00E5
:0427E2002D2D000099
:00000001FF
